:100000000C9434000C9451000C9451000C94510049
:100010000C940F020C9451000C9451000C9451005C
:100020000C9451000C9451000C9451000C9451000C
:100030000C9451000C9451000C9451000C945100FC
:100040000C9451000C9451000C9451000C945100EC
:100050000C9451000C9451000C9451000C945100DC
:100060000C9451000C94510011241FBECFEFD8E026
:10007000DEBFCDBF11E0A0E0B1E0E8E2F2E202C0F5
:1000800005900D92A035B107D9F721E0A0E5B1E0C8
:1000900001C01D92A235B207E1F70E945D080C94E1
:1000A00086100C94000082E0809368008FE08093BB
:1000B0006C00789408955F926F927F928F929F92D6
:1000C000AF92BF92CF92DF92EF92FF920F931F9366
:1000D000CF93DF93CDB7DEB7A1970FB6F894DEBF0D
:1000E0000FBECDBF4C01562E7B8F3A012C8F3D8F1A
:1000F000EE8EFF8E08A319A3B501C6017E0128E08C
:10010000E20EF11C870121E045E00E942E0B5E010A
:100110008FEFA81AB80A850121E045E06E8D7F8D2A
:1001200088A199A10E942E0B9B8D9F935F928FE0D7
:10013000C82E81E0D82EDF92CF921F9296E0592EE2
:100140005F920C5E1F4F1F930F930E94530B2D8DD8
:100150002F938C8D8F93DF92CF921F925F926E01BF
:100160009FE0C90ED11CDF92CF920E94530B0FB6B5
:10017000F894DEBF0FBECDBF5E2CEA2C92E089164C
:10018000910409F466C0E4F481E08816910418F142
:1001900009F458C0A1960FB6F894DEBF0FBECDBFCC
:1001A000DF91CF911F910F91FF90EF90DF90CF9053
:1001B000BF90AF909F908F907F906F905F900895C9
:1001C00093E08916910431F760E080E00E94160404
:1001D00082E491E011C060E080E00E94160482E1B8
:1001E00091E00E94090489E191E00E940904C8019C
:1001F0000E9409048CE191E00E94090481E291E0EF
:10020000672811F484E291E00E94090460E081E033
:100210000E941604C6010E94090488E291E00E942F
:1002200009048E2D9B2D0E9409048BE291E00E940F
:100230000904852D9F2D0E9409048BE291E00E9404
:100240000904A8CF60E080E00E9416048DE291E0EE
:10025000C8CF60E080E00E94160484E391E0CCCF38
:100260000E9453000E941E040E94EA050C94D305CC
:10027000FFCF8F929F92AF92BF92CF92DF92EF9279
:10028000FF920F931F93CF93DF93CDB7DEB76097A5
:100290000FB6F894DEBF0FBECDBF9A8389837C83EF
:1002A0006B835E834D8338872F83E986FA860B87BD
:1002B0001C87AD86BE86CF86D88A89819A8197FDB4
:1002C00006C089819A81DD24D39404970CF0D12C47
:1002D0008B819C81181619063CF48B819C81EE243D
:1002E000E394843691050CF0E12C8D819E81FF24EE
:1002F000F394892B39F08D819E81FF24F39401972B
:1003000009F0F12C8F8198851816190634F48F8125
:10031000988501E0853691050CF000E089849A8487
:10032000AB84BC846D857E858F85988929853A85C7
:100330004B855C850E94610820E030E040EA50E493
:100340000E94CD0810E0181694F06D857E858F858B
:10035000988929853A854B855C850E94600840E034
:1003600050E09A010E942C0A8038110B1195D1148B
:1003700009F442C0E11409F43FC0F114E9F1011598
:10038000D9F140E050E09A01B401C5010E942C0A65
:1003900087FD32C0111581F189819A8190935101B5
:1003A000809350018B819C8190930E0180930D016D
:1003B0008D819E8190930C0180930B018F81988594
:1003C00090930A018093090189859A85AB85BC8544
:1003D0008093050190930601A0930701B093080153
:1003E0008D859E85AF85B889809301019093020128
:1003F000A0930301B093040160960FB6F894DEBF9A
:100400000FBECDBFDF91CF911F910F91FF90EF9065
:10041000DF90CF90BF90AF909F908F9008951F92E4
:100420000F920FB60F921124AF92BF92CF92DF922C
:10043000EF92FF920F931F932F933F934F935F93EE
:100440006F937F938F939F93AF93BF93EF93FF939C
:10045000CF93DF93CDB7DEB72897DEBFCDBF329BFA
:100460004BC031994BC080910001880F80930001EF
:1004700080910001813208F441C081E08093000145
:100480003DC080910001883009F41FC108F079C097
:10049000823009F4D1C0843009F4F1C0813009F40C
:1004A000A7C0A0900101B0900201C0900301D090BC
:1004B0000401E0900501F090060100910701109100
:1004C00008012091090130910A0140910B015091DE
:1004D0000C0160910D0170910E018091500190917D
:1004E00051010E945B003FEF83ED90E3315080406B
:1004F0009040E1F700C00000329BC3CFA090010103
:10050000B0900201C0900301D0900401E090050179
:10051000F090060100910701109108012091090156
:1005200030910A0140910B0150910C0160910D0135
:1005300070910E0180915001909151010E945B00D9
:1005400028960FB6F894DEBF0FBECDBFDF91CF91D6
:10055000FF91EF91BF91AF919F918F917F916F919B
:100560005F914F913F912F911F910F91FF90EF90CD
:10057000DF90CF90BF90AF900F900FBE0F901F9065
:100580001895803109F4C4C0803209F08ACF609197
:100590000101709102018091030190910401E090AA
:1005A0000501F090060100910701109108012091CA
:1005B000090130910A0129833A8320910B0130917E
:1005C0000C012B833C8320910D0130910E012D8372
:1005D0003E8320915001309151012F8338872DECBB
:1005E0003CEC4CEC5DE30E9461085B016C01C0C017
:1005F000A0900101B0900201C0900301D0900401CD
:10060000E0900501F09006010091070110910801AA
:100610002091090130910A0140910B0150910C0188
:1006200060910D0170910E018091500190915101E6
:1006300001960E94390135CFA0900101B0900201CE
:10064000C0900301D0900401E0900501F0900601F4
:1006500000910701109108012091090130910A01D0
:1006600040910B0150910C0160910D0170910E01B0
:1006700080915001909151016F5F7F4FDACFA09030
:100680000101B0900201C0900301D0900401E090FC
:100690000501F090060100910701109108012091D9
:1006A000090130910A01E0910B01F0910C01609178
:1006B0000D0170910E01809150019091510141E026
:1006C000EF2B09F040E050E0B4CFA0900101B090D2
:1006D0000201C0900301D0900401E0900501F09068
:1006E0000601009107011091080120910901309144
:1006F0000A0140910B0150910C0160910D01709124
:100700000E0180915001909151012F5F3F4F91CF89
:10071000A0900101B0900201C0900301D0900401AB
:100720006091050170910601809107019091080187
:100730002091090130910A0129833A8320910B010C
:1007400030910C012B833C8320910D0130910E01DF
:100750002D833E8320915001309151012F833887A2
:100760002DEC3CEC4CEC5DE30E9461087B018C01BC
:1007700029813A814B815C816D817E818F81988551
:1007800058CF9BB19F709BB980FD5C9A81FD5D9AAB
:1007900082FD5E9A83FD5F9A5B9A85E08A95F1F708
:1007A00000005B988FE891E00197F1F700C000002E
:1007B0000895CF93C82F5A9882958F700E94C103D5
:1007C0008C2F8F700E94C1038FE39FE10197F1F797
:1007D00000C00000CF910895CF93C82F5A9A8295F8
:1007E0008F700E94C1038C2F8F700E94C1038FE312
:1007F0009FE10197F1F700C00000CF91089581E0DB
:100800000E94D9038FE39FE10197F1F700C0000038
:100810000895CF93DF93EC018881811103C0DF91AC
:10082000CF91089521960E94EC03F6CF811104C068
:1008300080E8860F0C94D90380ECFBCF8AB18C6FD3
:100840008AB92FEF83EF91E0215080409040E1F78B
:1008500000C0000083E00E94C1038FE19EE4019785
:10086000F1F700C0000083E00E94C10387E592E039
:100870000197F1F700C0000083E00E94C10382E00D
:100880000E94C10388E20E94D90388E00E94D90334
:1008900081E00E94D90386E00E94D9038CE00C9489
:1008A000D9039C01F999FECF32BD21BD60BDFA9AF2
:1008B000F99A08959C01F999FECF32BD21BDF89AAD
:1008C00080B50895CF93DF9300D00F92CDB7DEB7F8
:1008D0008A839B8379830E94510469818A819B81E9
:1008E00001960F900F900F90DF91CF910C945104CF
:1008F000CF93DF9300D00F92CDB7DEB78A839B836F
:100900000E945A0489838A819B8101960E945A041D
:10091000282F4981842F440F990B922B0F900F9011
:100920000F90DF91CF910895CF93DF93EC01688111
:10093000798182E090E00E9462046A817B8186E096
:1009400090E00E9462046C817D818AE090E00E94C8
:1009500062046E817F818EE090E00E94620468856F
:10096000798582E190E00E9462046A857B8586E158
:1009700090E00E9462046C857D858AE190E00E948F
:1009800062046E857F858EE190E00E946204688932
:10099000798982E290E00E9462046A897B8986E21A
:1009A00090E00E9462046C897D898AE290E00E9456
:1009B00062046E897F898EE290E00E946204688DF5
:1009C000798D82E390E00E9462046A8D7B8D86E3DC
:1009D00090E00E9462046C8D7D8D8AE390E00E941D
:1009E00062046E8D7F8D8EE390E0DF91CF910C9449
:1009F0006204CF93DF93EC0182E090E00E947804E0
:100A00009983888386E090E00E9478049B838A83A0
:100A10008AE090E00E9478049D838C838EE090E0D1
:100A20000E9478049F838E8382E190E00E94780484
:100A30009987888786E190E00E9478049B878A875F
:100A40008AE190E00E9478049D878C878EE190E097
:100A50000E9478049F878E8782E290E00E9478044B
:100A6000998B888B86E290E00E9478049B8B8A8B1E
:100A70008AE290E00E9478049D8B8C8B8EE290E05D
:100A80000E9478049F8B8E8B82E390E00E94780412
:100A9000998F888F86E390E00E9478049B8F8A8FDD
:100AA0008AE390E00E9478049D8F8C8F8EE390E023
:100AB0000E9478049F8F8E8FDF91CF910895EF92DF
:100AC000FF920F931F93CF93DF9300D000D000D0FD
:100AD000CDB7DEB78D839E8349835A836B837C8336
:100AE0007E018FEFE81AF80A00E010E0F70161914B
:100AF0007F018D819E81800F911F0E9451040F5FA5
:100B00001F4F0430110591F70F900F900F900F9029
:100B10000F900F90DF91CF911F910F91FF90EF9069
:100B20000895EF92FF920F931F93CF93DF9300D01E
:100B300000D000D0CDB7DEB78D839E837E018FEFCE
:100B4000E81AF80A00E010E08D819E81800F911F65
:100B50000E945A04F70181937F010F5F1F4F0430F9
:100B6000110591F769817A818B819C810F900F909B
:100B70000F900F900F900F90DF91CF911F910F91D9
:100B8000FF90EF90089525B1982F96959695207C2B
:100B9000922B95B998B1880F880F880F80739F7C2E
:100BA000892B88B9089587B1806387B984B18F6331
:100BB00084B980E00C94C30528B1982F9295907366
:100BC0002F7C922B98B995B1907C86958695892B30
:100BD00085B9089580E480937C0087E880937A004B
:100BE000089580917C00807F80937C0080917A00C2
:100BF000806480937A0080917A0086FDFCCF80919A
:100C00007800909179000895CF92DF92EF92FF9251
:100C10000F931F93CF93DF9300D000D000D0CDB7B8
:100C2000DEB77C01CB01BA010E831D83890120E070
:100C300030E048EC52E40E94D20869837A838B83C7
:100C40009C83670184E6C80ED11C20E030E04CE4B0
:100C500052E46E817D81C8010E94310A20E030E0BB
:100C600040E05FE30E9461080E944B09F701619335
:100C70007F0129813A814B815C816E817D81C80130
:100C80000E9461086E837D838C01EC14FD04E9F6FB
:100C90000F900F900F900F900F900F90DF91CF91CA
:100CA0001F910F91FF90EF90DF90CF9008957F926A
:100CB0008F929F92AF92BF92CF92DF92EF92FF926C
:100CC0000F931F93CF93DF93CDB7DEB728970FB65F
:100CD000F894DEBF0FBECDBF8D839E8349835A83B8
:100CE0006B837C83680128873F837E2C8E2C912C1C
:100CF000A12CB12CB401C5010E947A099B01AC0161
:100D000069817A818B819C810E94D2087B018C0150
:100D1000B401C5010E947C099B01AC0188EC92E4FE
:100D2000B5010E9460089B01AC0169817A818B81C9
:100D30009C810E94D20869837A838B839C83AD80D7
:100D4000BE8020E030E04CE452E4B60188859F810B
:100D50000E94310A20E030E040E05FE30E94610839
:100D60000E944B09F50161935F01971410F59701FB
:100D7000A801B60188859F810E9461086B01888760
:100D80009F839394F4E69F12DCCF28960FB6F894D5
:100D9000DEBF0FBECDBFDF91CF911F910F91FF90AE
:100DA000EF90DF90CF90BF90AF909F908F907F900B
:100DB000089529813A814B815C81B60188859F81A4
:100DC0000E946008DBCF4F925F926F927F928F926A
:100DD0009F92AF92BF92CF92DF92EF92FF920F93CA
:100DE0001F93CF93DF93CDB7DEB72A970FB6F89452
:100DF000DEBF0FBECDBF8A87998749835A836B8335
:100E00007C830D831E832F8338872BED3FE049ECD5
:100E100050E4B601C7010E94310A9401A5010E9465
:100E2000D2086B017C016A847984230188E9481A1D
:100E30008EEF580AA12CB12C8501B501C8010E9482
:100E40009E0A29813A814B815C810E94310A2D8161
:100E50003E814F8158850E9461084B0189879A879E
:100E600020E030E040EA50E40E942C0A18160CF40E
:100E700057C040E050E09A01B40189859A850E94EC
:100E8000CD0887FF04C0812C912C19861A8620E09A
:100E900030E04CE452E4B40189859A850E94310A1D
:100EA00020E030E040E05FE30E9461080E944B09CF
:100EB000F30161933F019601A701B501C8010E94AA
:100EC00061085B018C012BED3FE049EC50E40E948E
:100ED0002C0A87FD0AC02BED3FE049EC50E4B50138
:100EE000C8010E9460085B018C016414750409F05C
:100EF000A4CF2A960FB6F894DEBF0FBECDBFDF9108
:100F0000CF911F910F91FF90EF90DF90CF90BF9006
:100F1000AF909F908F907F906F905F904F900895CB
:100F2000812C912CE0EAE987F0E4FA87B0CFCF92E8
:100F3000DF92EF92FF920F931F93CF93DF93CDB782
:100F4000DEB72E970FB6F894DEBF0FBECDBF2D8350
:100F50003E834F8358878C016C0188E9C81A8EEF55
:100F6000D80A1D861E86E12CF12C69831A821B8209
:100F70001C826D857E858F2D9E2D0E949E0A69871D
:100F80007A878B879C8769817A818B819C810E947B
:100F90007C0929853A854B855C850E94310A0E942F
:100FA000440960587F4FDAF560E0D8016D938D01F8
:100FB0002D813E814F8158856D857E858F2D9E2D9B
:100FC0000E9461086D877E87F82EE92E2BED3FE0A9
:100FD00049EC50E40E942C0A87FD0EC02BED3FE047
:100FE00049EC50E46D857E858F2D9E2D0E94600812
:100FF0006D877E87F82EE92EC016D10609F0B9CF8D
:101000002E960FB6F894DEBF0FBECDBFDF91CF9105
:101010001F910F91FF90EF90DF90CF900895713066
:1010200024F26FEFC2CF8F929F92AF92BF92EF9256
:101030000F931F93CF93DF9300D000D000D0CDB794
:10104000DEB74A015B0109831A832B833C838D83BE
:101050009E8310E09401A50169817A818B819C8136
:101060001E1540F50E94610820E030E04CE452E497
:101070000E94310A20E030E040E05FE30E94610816
:101080000E944B09ED81FE816193ED83FE831F5F1A
:10109000143601F70F900F900F900F900F900F9054
:1010A000DF91CF911F910F91EF90BF90AF909F90E4
:1010B0008F9008950E946008D7CF0E943001FFCF23
:1010C0005058BB27AA270E9478080C94F2090E9466
:1010D000E40938F00E94EB0920F039F49F3F19F43D
:1010E00026F40C94E1090EF4E095E7FB0C94DB097F
:1010F000E92F0E94030A58F3BA176207730784079F
:10110000950720F079F4A6F50C94250A0EF4E095E5
:101110000B2EBA2FA02D0B01B90190010C01CA01B1
:10112000A0011124FF27591B99F0593F50F4503E5C
:1011300068F11A16F040A22F232F342F4427585F4E
:10114000F3CF469537952795A795F0405395C9F766
:101150007EF41F16BA0B620B730B840BBAF091501E
:10116000A1F0FF0FBB1F661F771F881FC2F70EC0BD
:10117000BA0F621F731F841F48F487957795679590
:10118000B795F7959E3F08F0B0CF9395880F08F07C
:101190009927EE0F9795879508950E94B70908F44F
:1011A00081E008950E94E6080C94F2090E94EB0980
:1011B00058F00E94E40940F029F45F3F29F00C94B4
:1011C000DB0951110C94260A0C94E1090E94030AD0
:1011D00068F39923B1F3552391F3951B550BBB2766
:1011E000AA2762177307840738F09F5F5F4F220FAB
:1011F000331F441FAA1FA9F335D00E2E3AF0E0E8A2
:1012000032D091505040E695001CCAF72BD0FE2FEB
:1012100029D0660F771F881FBB1F2617370748077F
:10122000AB07B0E809F0BB0B802DBF01FF27935837
:101230005F4F3AF09E3F510578F00C94DB090C9417
:10124000260A5F3FE4F3983ED4F386957795679539
:10125000B795F7959F5FC9F7880F911D969587956C
:1012600097F90895E1E0660F771F881FBB1F62178B
:1012700073078407BA0720F0621B730B840BBA0B49
:10128000EE1F88F7E09508950E944B096894B1110C
:101290000C94260A08950E940B0A88F09F5798F034
:1012A000B92F9927B751B0F0E1F0660F771F881F6B
:1012B000991F1AF0BA95C9F714C0B13091F00E9485
:1012C000250AB1E008950C94250A672F782F882706
:1012D000B85F39F0B93FCCF3869577956795B395AC
:1012E000D9F73EF490958095709561957F4F8F4F1B
:1012F0009F4F0895E89409C097FB3EF49095809520
:10130000709561957F4F8F4F9F4F9923A9F0F92FCB
:1013100096E9BB279395F695879577956795B79549
:10132000F111F8CFFAF4BB0F11F460FF1BC06F5F2F
:101330007F4F8F4F9F4F16C0882311F096E911C041
:10134000772321F09EE8872F762F05C0662371F062
:1013500096E8862F70E060E02AF09A95660F771F76
:10136000881FDAF7880F9695879597F90895990F52
:101370000008550FAA0BE0E8FEEF16161706E8075F
:10138000F907C0F012161306E407F50798F0621B80
:10139000730B840B950B39F40A2661F0232B242B55
:1013A000252B21F408950A2609F4A140A6958FEF74
:1013B000811D811D089597F99F6780E870E060E0C6
:1013C00008959FEF80EC089500240A9416161706DE
:1013D00018060906089500240A9412161306140626
:1013E00005060895092E0394000C11F4882352F089
:1013F000BB0F40F4BF2B11F460FF04C06F5F7F4F41
:101400008F4F9F4F089557FD9058440F551F59F027
:101410005F3F71F04795880F97FB991F61F09F3FE1
:1014200079F087950895121613061406551FF2CF0A
:101430004695F1DF08C0161617061806991FF1CF5A
:1014400086957105610508940895E894BB27662781
:101450007727CB0197F908950E94B70908F48FEF19
:1014600008950E94440A0C94F2090E94E40938F09D
:101470000E94EB0920F0952311F00C94DB090C94E9
:10148000E10911240C94260A0E94030A70F3959F27
:10149000C1F3950F50E0551F629FF001729FBB276B
:1014A000F00DB11D639FAA27F00DB11DAA1F649F07
:1014B0006627B00DA11D661F829F2227B00DA11DBA
:1014C000621F739FB00DA11D621F839FA00D611D40
:1014D000221F749F3327A00D611D231F849F600D61
:1014E000211D822F762F6A2F11249F5750409AF08A
:1014F000F1F088234AF0EE0FFF1FBB1F661F771F16
:10150000881F91505040A9F79E3F510580F00C94E0
:10151000DB090C94260A5F3FE4F3983ED4F38695EA
:1015200077956795B795F795E7959F5FC1F7FE2B80
:10153000880F911D9695879597F908959F930E941E
:10154000A80A0F9007FCEE5F0C94D10A0C94E109F5
:101550000E940B0AD8F3E894E0E0BB279F57F0F015
:101560002AED3FE049EC06C0EE0FBB0F661F771F68
:10157000881F28F0B23A62077307840728F0B25A2E
:10158000620B730B840BE3959A9572F7803830F4F5
:101590009A95BB0F661F771F881FD2F790480C944F
:1015A000E70AEF93E0FF07C0A2EA2AED3FE049EC2B
:1015B0005FEB0E9478080E94F2090F90039401FCEF
:1015C0009058E0E1F1E20C94F30A9F3F31F0915022
:1015D00020F4879577956795B795880F911D969517
:1015E000879597F908959F938F937F936F93FF93B8
:1015F000EF939B01AC010E94310AEF91FF910E9491
:10160000070B2F913F914F915F910C94310ADF931B
:10161000CF931F930F93FF92EF92DF927B018C0188
:10162000689406C0DA2EEF010E94440AFE01E89495
:10163000A5912591359145915591A6F3EF010E9411
:101640007808FE019701A801DA9469F7DF90EF901E
:10165000FF900F911F91CF91DF9108958F929F92EC
:10166000AF92BF92EF920F931F93CF93322FC02F61
:1016700054E147FF54E0242F27FD2195E52E032F49
:101680004C2F512F4B015C01C501B4010E94710D1B
:101690008C2F912FCF911F910F91EF90BF90AF9012
:1016A0009F908F900895AEE0B0E0E9E5FBE00C94E8
:1016B0005D100D891E8986E08C831A8309838F89CA
:1016C000988D813020E8920710F080E090E8019733
:1016D0009E838D83AE01455E5F4F698D7A8DCE010D
:1016E00001960E94850B4D815E8157FD0AC02F81B6
:1016F0003885421753070CF49A01020F131FF801A3
:1017000010822E96E4E00C947910ABE0B0E0EBE8A8
:10171000FBE00C9450106C017B018A01FC011782E4
:101720001682838181FFDAC19AE0492EF601238176
:10173000F70123FD859123FF81917F01811509F434
:101740001FC1853239F423FD959123FF91917F01CB
:10175000953229F4B60190E00E94C10FE7CF30E046
:10176000612C512C712CF0E27F1640F59B32D9F0A0
:1017700058F49032D1F09332F1F09E3299F576FC24
:10178000FFC0689476F806C09D3291F09033C1F4A2
:10179000689470F8F70123FD959123FF91917F01E3
:1017A0009111E1CF29C0689471F8689472F8F2CF72
:1017B000689473F8EFCF689474F8ECCF77FC1CC092
:1017C00080ED890F8A30C8F676FE05C0649C800DD6
:1017D0001124682EDFCF549C800D1124582E68945C
:1017E00075F8D8CF9C3619F4689477F8D3CF9C3429
:1017F00009F44BC0983671F2892F8F7D8554833060
:1018000008F445C0933609F466C0933709F469C0FB
:10181000933509F475C0943619F0993609F09FC0D4
:10182000F80177FE95C061917191819191918F013D
:10183000272D2F76722E97FF09C090958095709571
:1018400061957F4F8F4F9F4F689477F82AE030E083
:10185000AE014F5F5F4F5A010E94F10F8A19A82E07
:1018600076FEC5C0872D8E7FA61408F0BFC074FE1B
:1018700012C172FC06C1F72DFE7E7F2EB62C872D7D
:101880008678811509F4C0C001C131E083CF3115DC
:10189000F9F0085F1F4F8FE3898388248394912C8C
:1018A000AE014F5F5F4F5A01E89477F873FC03C0B5
:1018B00085149104B0F181149104D1F5511409F407
:1018C00035CFB60180E290E00E94C10F5A94F6CF66
:1018D0000C5F1F4FE0CFF801808189830E5F1F4F9F
:1018E000DCCFF801A190B1908F01662D70E076FCFD
:1018F00002C06FEF7FEFC5010E94B60F4C01D4CF3D
:10190000F801A190B1908F01662D70E076FC02C0C5
:101910006FEF7FEFC5010E94AB0F4C01689477F821
:10192000C5CFB60180E290E00E94C10F5A94C0CFAB
:10193000F50177FC859177FE81915F01B60190E01A
:101940000E94C10F51105A94F1E08F1A9108B3CF41
:1019500061917191072E000C880B990B68CF372C81
:10196000E89434F82AE030E0953739F1572D597F63
:10197000352E903799F058F49835A9F09F36D9F064
:10198000F601868197812B96E1E10C946C109837D3
:10199000B9F774FC05C020E130E00FC0689434F85A
:1019A000689432F8F8CF74FE03C0872D8660382E15
:1019B00020E132E002C028E030E0F80137FE11C03B
:1019C00061917191819191918F01FE0131965F0139
:1019D000AF010E94F10F8A19A82E732CE89477F8B2
:1019E0003FCF6191719180E090E0EECF782EBA2CDC
:1019F00074FE45CFFE01EA0DF11D8081803309F0B0
:101A000043C0272D297E722E73FC0EC070FE4FC07E
:101A10006A2CB51418F4650C6B18B52C852D8B1930
:101A20005B1408F480E0B80EB51408F042C05B18EF
:101A300074FE41C0B60180E390E00E94C10F72FEC7
:101A400009C088E590E071FC02C088E790E0B6012B
:101A50000E94C10FA614D8F1AA94B12C4FEFA41A7A
:101A6000B40ACE0101963C01A80EB91EF50182917F
:101A70005F01B60190E00E94C10F6A147B04B1F7C8
:101A80001DCFB62C782EB6CF72FC02C0B394BCCF5B
:101A9000B394B394B9CFB62C782EF1CEB60180E2D0
:101AA00090E00E94C10F33943514C0F3B7CF3B2CA4
:101AB000FBCF512CBDCF872D8678811559F280E25E
:101AC00071FC8BE277FC8DE2B60190E0C1CFB601EC
:101AD00080E390E00E94C10F6A94BCCF8FEF9FEF2C
:101AE00052CFA0E1B0E0E7E7FDE00C944F106A01AF
:101AF000122FF02E202F3CE3031708F02BE32F5F6B
:101B0000288B022F27E0AE014F5F5F4F6C877D87E8
:101B10008E879F876C857D858E859F850E94D30EDD
:101B20005C019981892F8970813039F0E0FA88272A
:101B300085F9E1FE03C08BE201C08DE2292F2870F8
:101B4000BE2DB07193FF44C094E0811101C093E0B9
:101B50009117C8F4191BB11519F1811519F0F60187
:101B600081936F01C601039631E62EE6E2FE02C0C4
:101B700031E42EE4F601208331832283212F382F94
:101B8000492F50E219C010E0E6CFF90141932F012F
:101B900091509F019111F9CFC10ED11C10E0DDCF02
:101BA000912F960140E2F6CF632E742EF3015193EC
:101BB0003F0121503E2F472D2111F6CF810F911D5E
:101BC000FC0110828EEF9FEF6096E2E10C946B10A7
:101BD000A92FA47092FF3EC094E0811101C093E050
:101BE000911710F4212F291BB11529F1811519F036
:101BF000F60181936F01C601039659E64EE636E67B
:101C0000E2FE03C059E44EE436E4F601508341831A
:101C10003283322FAC0160E218C0832E942EF4017F
:101C200051934F0191503E2F492D9111F6CFC20E85
:101C3000D11C20E0DBCF922F3C2D4D2D50E2F5CF73
:101C4000FA0161931F013150AF013111F9CF820FB9
:101C5000911DB6CF9501B7FE02C020E030E061E0F3
:101C600070E0811102C060E070E0A9014F5F5F4F3A
:101C7000460F571F6F2D70E0FB013196F11002C027
:101C8000E0E0F0E04E0F5F1F4117510514F4A12F63
:101C9000A41B4E2D4871411155C0F6014A2F50E248
:101CA00041114DC0CA0ED11CA0E0811531F0F601E2
:101CB0008193A42F6F01B11108C0F6018A2F40E370
:101CC000811145C0CA0ED11CA0E088898A0D5A81B5
:101CD000B92FB07194FF03C0513309F48150181625
:101CE000CCF5893008F088E0FE013196EA0DFB1D45
:101CF0004F01821A930A7501E81AF10871956195EE
:101D000071091EE2A216B3063CF1E216F30624F5B1
:101D1000F401418121503109C6010196FFEF8F1A6C
:101D20009F0A26173707D4F0F60140832F3F32076A
:101D300021F4C6010296F60111836C01E3CF5193A1
:101D40004150AECF811509F4B6CF4A2FB0CF4193A1
:101D50008150B6CF81E0C8CF40E3DCCFA216B306F6
:101D600031F4563398F4553311F4B11579F0F60186
:101D700040832A2F382F492F50E2211109C08A0FA2
:101D8000911DFC01108280E090E01ECF41E3EFCF77
:101D90003A874B87EA85FB855193FB87EA87215079
:101DA0003A854B85EACF283008F027E03327DA015F
:101DB000990F311D87FD916000966105710539F419
:101DC00032602E5F3D9330E32A95E1F708959F3FFF
:101DD00030F080387105610509F03C5F3C5F3D9350
:101DE000913008F08068911DDF93CF931F930F937C
:101DF000FF92EF92192F987F9695E92F96959695D9
:101E0000E90FFF27E857FE4D99273327EE24FF24DB
:101E1000A701E70105900894079428F4360FE71E00
:101E2000F81E491F511D660F771F881F991F0694C2
:101E3000A1F70590079428F4E70EF81E491F561FD6
:101E4000C11D770F881F991F661F0694A1F7059083
:101E5000079428F4F80E491F561FC71FD11D880F7D
:101E6000991F661F771F0694A1F70590079420F429
:101E7000490F561FC71FD81F990F661F771F881F4E
:101E80000694A9F784911095177041F0D695C795DF
:101E900057954795F794E7941A95C1F7EEE2F1E26A
:101EA00068941590159135916591959105907FE213
:101EB0007395E118F10A430B560BC90BD009C0F713
:101EC000E10CF11E431F561FC91FD01D7EF4703355
:101ED00011F48A95E6CFE894015030F0080F0AF427
:101EE0000027021708F4202F2395022F7A3328F0B9
:101EF00079E37D932A95E9F710C07D932A9589F6B9
:101F0000069497956795379517951794E118F10AF8
:101F1000430B560BC90BD00998F023957E9173950E
:101F20007A3308F070E37C932013B8F77E917061E8
:101F30007D9330F0839571E37D9370E32A95E1F70B
:101F40001124EF90FF900F911F91CF91DF9199276E
:101F500087FD90950895FC01059061507040011037
:101F6000D8F7809590958E0F9F1F0895FC016150C2
:101F7000704001900110D8F7809590958E0F9F1FAB
:101F800008950F931F93CF93DF93182F092FEB0121
:101F90008B8181FD09C01FEF0FEF812F902FDF9103
:101FA000CF911F910F91089582FF14C02E813F8120
:101FB0008C819D81281739073CF4E881F981CF0194
:101FC00001969983888310838E819F8101969F83D8
:101FD0008E83E3CFE885F985812F0995892BA1F3BD
:101FE000DACFFA01AA27283051F1203181F1E894A3
:101FF0006F936E7F6E5F7F4F8F4F9F4FAF4FB1E0FC
:102000003ED0B4E03CD0670F781F891F9A1FA11DF6
:10201000680F791F8A1F911DA11D6A0F711D811DF7
:10202000911DA11D20D009F468943F912AE0269FBC
:1020300011243019305D3193DEF6CF010895462F1B
:102040004770405D4193B3E00FD0C9F7F6CF462FFC
:102050004F70405D4A3318F0495D31FD4052419365
:1020600002D0A9F7EACFB4E0A69597958795779522
:102070006795BA95C9F700976105710508959B01A9
:10208000AC010A2E06945795479537952795BA9532
:10209000C9F7620F731F841F951FA01D08952F920B
:1020A0003F924F925F926F927F928F929F92AF92E8
:1020B000BF92CF92DF92EF92FF920F931F93CF9335
:1020C000DF93CDB7DEB7CA1BDB0B0FB6F894DEBFCC
:1020D0000FBECDBF09942A88398848885F846E84F2
:1020E0007D848C849B84AA84B984C884DF80EE803C
:1020F000FD800C811B81AA81B981CE0FD11D0FB645
:10210000F894DEBF0FBECDBFED010895F894FFCF68
:1021100005A84CCDB2D44EB93836A9020C50B991AD
:102120008688083CA6AAAA2ABE000000803F00407C
:102130007A10F35A00A0724E18090010A5D4E800D6
:1021400000E87648170000E40B54020000CA9A3BEE
:10215000000000E1F5050000809698000000404274
:102160000F000000A0860100000010270000000002
:10217000E803000000006400000000000A00000006
:1021800000000100000000002C76D888DC674F08B2
:1021900023DFC1DFAE59E1B1B796E5E3E453C63AB8
:1021A000E651997696E8E6C28426EB898C9B62ED2F
:1021B000407C6FFCEFBC9C9F40F2BAA56FA5F490E9
:1021C000055A2AF75C936B6CF9676DC11BFCE0E460
:1021D0000D47FEF520E6B500D0ED902E03009435B6
:1021E00077050080841E080000204E0A000000C809
:1021F0000C333333330F986E12831141EF8D21145A
:10220000893BE65516CFFEE6DB18D1844B381BF729
:102210007C1D901DA4BBE424203284725E228100C8
:08222000C9F124ECA1E53D2702
:1022280001CDCC4C3ECDCCCC3D1400010032002574
:102238006400543A5155412000443A00252020209A
:10224800004F4E004F464600487A005600543A5414
:1022580052492000543A52414D202020202020206D
:102268002000543A53454E202020202020202000D2
:00000001FF
