:100000000C9434000C9451000C9451000C94510049
:100010000C9454020C9451000C94060D0C94510055
:100020000C9451000C9451000C9451000C9451000C
:100030000C9451000C9451000C9451000C945100FC
:100040000C9451000C9451000C9451000C945100EC
:100050000C9451000C9451000C9451000C945100DC
:100060000C9451000C94510011241FBECFEFD8E026
:10007000DEBFCDBF11E0A0E0B1E0EEE3F3E602C0E9
:1000800005900D92A436B107D9F721E0A4E6B1E0BE
:1000900001C01D92A13FB207E1F70E9495090C949F
:1000A00008310C94000082E0809368008FE0809318
:1000B0006C00789408955F926F927F928F929F92D6
:1000C000AF92BF92CF92DF92EF92FF920F931F9366
:1000D000CF93DF93CDB7DEB7A1970FB6F894DEBF0D
:1000E0000FBECDBF4C01562E7B8F3A012C8F3D8F1A
:1000F000EE8EFF8E08A319A3B501C6017E0128E08C
:10010000E20EF11C870121E045E00E94792A5E01A0
:100110008FEFA81AB80A850121E045E06E8D7F8D2A
:1001200088A199A10E94792A9B8D9F935F9286E175
:10013000C82E81E0D82EDF92CF921F9296E0592EE2
:100140005F920C5E1F4F1F930F930E94D52B2D8D36
:100150002F938C8D8F93DF92CF921F925F926E01BF
:100160009FE0C90ED11CDF92CF920E94D52B0FB613
:10017000F894DEBF0FBECDBF5E2CEA2C92E089164C
:10018000910409F466C0E4F481E08816910418F142
:1001900009F458C0A1960FB6F894DEBF0FBECDBFCC
:1001A000DF91CF911F910F91FF90EF90DF90CF9053
:1001B000BF90AF909F908F907F906F905F900895C9
:1001C00093E08916910431F760E080E00E945B04BF
:1001D00089E491E011C060E080E00E945B0489E165
:1001E00091E00E944E0480E291E00E944E04C8011A
:1001F0000E944E0483E291E00E944E0488E291E066
:10020000672811F48BE291E00E944E0460E081E0E7
:100210000E945B04C6010E944E048FE291E00E949E
:100220004E048E2D9B2D0E944E0482E391E00E948D
:100230004E04852D9F2D0E944E0482E391E00E9482
:100240004E04A8CF60E080E00E945B0484E391E06C
:10025000C8CF60E080E00E945B048BE391E0CCCFEC
:100260000E9453000E9463040E942F060C941806FB
:1002700070E0811531F080E395E70E947D27CB0186
:10028000089580E197E2F9CFCF93DF93CDB7DEB742
:10029000C856D1400FB6F894DEBF0FBECDBF812C3B
:1002A000912C8AE7A82E84E4B82E90EFE92E91E4F1
:1002B000F92E640120E230E48401B901A4013E0179
:1002C0008FEF681A780AC3010E942807D62CC72C22
:1002D0007E0197E9E91A9EEFF90A0D2D1C2DF80110
:1002E00081918F010E9408068BEB94E00197F1F752
:1002F00000C000000E151F0591F7EFCF8F929F925F
:10030000AF92BF92CF92DF92EF92FF920F931F9323
:10031000CF93DF93CDB7DEB760970FB6F894DEBF0B
:100320000FBECDBF9A8389837C836B835E834D83AD
:1003300038872F83E986FA860B871C87AD86BE86B1
:10034000CF86D88A89819A8197FD06C089819A8152
:10035000DD24D39404970CF0D12C8B819C8118164A
:1003600019063CF48B819C81EE24E394843691053C
:100370000CF0E12C8D819E81FF24F394892B39F0C0
:100380008D819E81FF24F394019709F0F12C8F81D8
:1003900098851816190634F48F81988501E0853602
:1003A00091050CF000E089849A84AB84BC846D854F
:1003B0007E858F85988929853A854B855C850E9445
:1003C000AC2720E030E040EA50E40E94182810E01A
:1003D000181694F06D857E858F85988929853A85D4
:1003E0004B855C850E94AB2740E050E09A010E945B
:1003F00077298038110B1195D11409F442C0E1140A
:1004000009F43FC0F114E9F10115D9F140E050E0E1
:100410009A01B401C5010E94772987FD32C01115E8
:1004200081F189819A8190936501809364018B8128
:100430009C8190930E0180930D018D819E819093FC
:100440000C0180930B018F81988590930A01809312
:10045000090189859A85AB85BC85809305019093B8
:100460000601A0930701B09308018D859E85AF8595
:10047000B8898093010190930201A0930301B09386
:10048000040160960FB6F894DEBF0FBECDBFDF91BA
:10049000CF911F910F91FF90EF90DF90CF90BF9081
:1004A000AF909F908F9008951F920F920FB60F926A
:1004B0001124AF92BF92CF92DF92EF92FF920F93EF
:1004C0001F932F933F934F935F936F937F938F93DC
:1004D0009F93AF93BF93EF93FF93CF93DF93CDB7EA
:1004E000DEB72897DEBFCDBF329B4BC031994BC0E2
:1004F00080910001880F809300018091000181327A
:1005000008F441C081E0809300013DC0809100016A
:10051000883009F41FC108F079C0823009F4D1C0D5
:10052000843009F4F1C0813009F4A7C0A090010122
:10053000B0900201C0900301D0900401E090050149
:10054000F090060100910701109108012091090126
:1005500030910A0140910B0150910C0160910D0105
:1005600070910E0180916401909165010E945B0081
:100570003FEF83ED90E3315080409040E1F700C0C1
:100580000000329BC3CFA0900101B0900201C09047
:100590000301D0900401E0900501F0900601009164
:1005A0000701109108012091090130910A01409141
:1005B0000B0150910C0160910D0170910E01809121
:1005C0006401909165010E945B0028960FB6F89433
:1005D000DEBF0FBECDBFDF91CF91FF91EF91BF91F5
:1005E000AF919F918F917F916F915F914F913F91CB
:1005F0002F911F910F91FF90EF90DF90CF90BF90C0
:10060000AF900F900FBE0F901F901895803109F496
:10061000C4C0803209F08ACF60910101709102015B
:100620008091030190910401E0900501F090060192
:1006300000910701109108012091090130910A01F0
:1006400029833A8320910B0130910C012B833C8349
:1006500020910D0130910E012D833E832091640184
:10066000309165012F8338872DEC3CEC4CEC5DE339
:100670000E94AC275B016C01C0C0A0900101B0904A
:100680000201C0900301D0900401E0900501F090B8
:100690000601009107011091080120910901309194
:1006A0000A0140910B0150910C0160910D01709174
:1006B0000E01809164019091650101960E947E0176
:1006C00035CFA0900101B0900201C0900301D090FD
:1006D0000401E0900501F0900601009107011091DE
:1006E00008012091090130910A0140910B015091BC
:1006F0000C0160910D0170910E0180916401909147
:1007000065016F5F7F4FDACFA0900101B0900201C9
:10071000C0900301D0900401E0900501F090060123
:1007200000910701109108012091090130910A01FF
:10073000E0910B01F0910C0160910D0170910E019F
:10074000809164019091650141E0EF2B09F040E058
:1007500050E0B4CFA0900101B0900201C09003011D
:10076000D0900401E0900501F0900601009107018E
:10077000109108012091090130910A0140910B016B
:1007800050910C0160910D0170910E0180916401F6
:10079000909165012F5F3F4F91CFA0900101B090E4
:1007A0000201C0900301D090040160910501709195
:1007B0000601809107019091080120910901309173
:1007C0000A0129833A8320910B0130910C012B837C
:1007D0003C8320910D0130910E012D833E832091A9
:1007E0006401309165012F8338872DEC3CEC4CEC93
:1007F0005DE30E94AC277B018C0129813A814B810A
:100800005C816D817E818F81988558CF9BB19F706F
:100810009BB980FD5C9A81FD5D9A82FD5E9A83FDA5
:100820005F9A5B9A85E08A95F1F700005B988FE804
:1008300091E00197F1F700C000000895CF93C82F11
:100840005A9882958F700E9406048C2F8F700E9498
:1008500006048FE39FE10197F1F700C00000CF91FC
:100860000895CF93C82F5A9A82958F700E940604DC
:100870008C2F8F700E9406048FE39FE10197F1F7A0
:1008800000C00000CF91089581E00E941E048FE314
:100890009FE10197F1F700C000000895CF93DF9327
:1008A000EC018881811103C0DF91CF9108952196D9
:1008B0000E943104F6CF811104C080E8860F0C94A9
:1008C0001E0480ECFBCF8AB18C6F8AB92FEF83EFC7
:1008D00091E0215080409040E1F700C0000083E0AB
:1008E0000E9406048FE19EE40197F1F700C000002A
:1008F00083E00E94060487E592E00197F1F700C0CB
:10090000000083E00E94060482E00E94060488E260
:100910000E941E0488E00E941E0481E00E941E04C2
:1009200086E00E941E048CE00C941E049C01F99940
:10093000FECF32BD21BD60BDFA9AF99A08959C019F
:10094000F999FECF32BD21BDF89A80B50895CF93B5
:10095000DF9300D00F92CDB7DEB78A839B83798374
:100960000E94960469818A819B8101960F900F9065
:100970000F90DF91CF910C949604CF93DF9300D02A
:100980000F92CDB7DEB78A839B830E949F04898331
:100990008A819B8101960E949F04282F4981842F80
:1009A000440F990B922B0F900F900F90DF91CF91E6
:1009B0000895CF93DF93EC016881798182E090E024
:1009C0000E94A7046A817B8186E090E00E94A704D0
:1009D0006C817D818AE090E00E94A7046E817F8116
:1009E0008EE090E00E94A7046885798582E190E01E
:1009F0000E94A7046A857B8586E190E00E94A70497
:100A00006C857D858AE190E00E94A7046E857F85D4
:100A10008EE190E00E94A7046889798982E290E0E3
:100A20000E94A7046A897B8986E290E00E94A7045D
:100A30006C897D898AE290E00E94A7046E897F8993
:100A40008EE290E00E94A704688D798D82E390E0A9
:100A50000E94A7046A8D7B8D86E390E00E94A70424
:100A60006C8D7D8D8AE390E00E94A7046E8D7F8D52
:100A70008EE390E0DF91CF910C94A704CF93DF93A6
:100A8000EC0182E090E00E94BD049983888386E0B7
:100A900090E00E94BD049B838A838AE090E00E94DC
:100AA000BD049D838C838EE090E00E94BD049F83F3
:100AB0008E8382E190E00E94BD049987888786E159
:100AC00090E00E94BD049B878A878AE190E00E94A3
:100AD000BD049D878C878EE190E00E94BD049F87B6
:100AE0008E8782E290E00E94BD04998B888B86E21B
:100AF00090E00E94BD049B8B8A8B8AE290E00E946A
:100B0000BD049D8B8C8B8EE290E00E94BD049F8B78
:100B10008E8B82E390E00E94BD04998F888F86E3DC
:100B200090E00E94BD049B8F8A8F8AE390E00E9430
:100B3000BD049D8F8C8F8EE390E00E94BD049F8F3B
:100B40008E8FDF91CF910895EF92FF920F931F93B5
:100B5000CF93DF9300D000D000D0CDB7DEB78D8328
:100B60009E8349835A836B837C837E018FEFE81ACF
:100B7000F80A00E010E0F70161917F018D819E810C
:100B8000800F911F0E9496040F5F1F4F04301105C4
:100B900091F70F900F900F900F900F900F90DF91A3
:100BA000CF911F910F91FF90EF900895EF92FF92D8
:100BB0000F931F93CF93DF9300D000D000D0CDB719
:100BC000DEB78D839E837E018FEFE81AF80A00E07E
:100BD00010E08D819E81800F911F0E949F04F7017C
:100BE00081937F010F5F1F4F0430110591F76981D9
:100BF0007A818B819C810F900F900F900F900F90B6
:100C00000F90DF91CF911F910F91FF90EF9008957A
:100C100025B1982F96959695207C922B95B998B1F1
:100C2000880F880F880F80739F7C892B88B908955F
:100C300087B1806387B984B18F6384B980E00C94F5
:100C4000080628B1982F929590732F7C922B98B913
:100C500095B1907C86958695892B85B9089580E419
:100C600080937C0087E880937A00089580917C00CF
:100C7000807F80937C0080917A00806480937A00EA
:100C800080917A0086FDFCCF809178009091790068
:100C90000895CF92DF92EF92FF920F931F93CF931D
:100CA000DF9300D000D000D0CDB7DEB77C01CB0100
:100CB000BA010E831D83890120E030E048EC52E444
:100CC0000E941D2869837A838B839C83670184E655
:100CD000C80ED11C20E030E04CE452E46E817D81EE
:100CE000C8010E947C2920E030E040E05FE30E94E0
:100CF000AC270E949628F70161937F0129813A81F0
:100D00004B815C816E817D81C8010E94AC276E831E
:100D10007D838C01EC14FD04E9F60F900F900F9089
:100D20000F900F900F90DF91CF911F910F91FF9037
:100D3000EF90DF90CF9008957F928F929F92AF9225
:100D4000BF92CF92DF92EF92FF920F931F93CF93B8
:100D5000DF93CDB7DEB728970FB6F894DEBF0FBE8E
:100D6000CDBF8D839E8349835A836B837C836801C7
:100D700028873F837E2C8E2C912CA12CB12CB40182
:100D8000C5010E94C5289B01AC0169817A818B81D4
:100D90009C810E941D287B018C01B401C5010E9429
:100DA000C7289B01AC0188EC92E4B5010E94AB27F7
:100DB0009B01AC0169817A818B819C810E941D28F5
:100DC00069837A838B839C83AD80BE8020E030E092
:100DD0004CE452E4B60188859F810E947C2920E082
:100DE00030E040E05FE30E94AC270E949628F501C6
:100DF00061935F01971410F59701A801B6018885EA
:100E00009F810E94AC276B0188879F839394F4E6AF
:100E10009F12DCCF28960FB6F894DEBF0FBECDBF71
:100E2000DF91CF911F910F91FF90EF90DF90CF90C6
:100E3000BF90AF909F908F907F90089529813A81C5
:100E40004B815C81B60188859F810E94AB27DBCFF7
:100E50004F925F926F927F928F929F92AF92BF92CA
:100E6000CF92DF92EF92FF920F931F93CF93DF9376
:100E7000CDB7DEB72A970FB6F894DEBF0FBECDBF51
:100E80008A87998749835A836B837C830D831E836A
:100E90002F8338872BED3FE049EC50E4B601C701C2
:100EA0000E947C299401A5010E941D286B017C01F0
:100EB0006A847984230188E9481A8EEF580AA12CA4
:100EC000B12C8501B501C8010E94E92929813A8127
:100ED0004B815C810E947C292D813E814F81588508
:100EE0000E94AC274B0189879A8720E030E040EAD6
:100EF00050E40E94772918160CF457C040E050E0E7
:100F00009A01B40189859A850E94182887FF04C038
:100F1000812C912C19861A8620E030E04CE452E4B2
:100F2000B40189859A850E947C2920E030E040E068
:100F30005FE30E94AC270E949628F30161933F0172
:100F40009601A701B501C8010E94AC275B018C0185
:100F50002BED3FE049EC50E40E94772987FD0AC061
:100F60002BED3FE049EC50E4B501C8010E94AB27EE
:100F70005B018C016414750409F0A4CF2A960FB6A6
:100F8000F894DEBF0FBECDBFDF91CF911F910F91BF
:100F9000FF90EF90DF90CF90BF90AF909F908F9099
:100FA0007F906F905F904F900895812C912CE0EA94
:100FB000E987F0E4FA87B0CFCF92DF92EF92FF9209
:100FC0000F931F93CF93DF93CDB7DEB72E970FB656
:100FD000F894DEBF0FBECDBF2D833E834F8358876D
:100FE0008C016C0188E9C81A8EEFD80A1D861E860E
:100FF000E12CF12C69831A821B821C826D857E850F
:101000008F2D9E2D0E94E92969877A878B879C877F
:1010100069817A818B819C810E94C72829853A85C4
:101020004B855C850E947C290E948F2860587F4FE9
:10103000DAF560E0D8016D938D012D813E814F81FD
:1010400058856D857E858F2D9E2D0E94AC276D87DE
:101050007E87F82EE92E2BED3FE049EC50E40E940C
:10106000772987FD0EC02BED3FE049EC50E46D85FC
:101070007E858F2D9E2D0E94AB276D877E87F82E53
:10108000E92EC016D10609F0B9CF2E960FB6F89406
:10109000DEBF0FBECDBFDF91CF911F910F91FF90AB
:1010A000EF90DF90CF900895713024F26FEFC2CFB0
:1010B0008F929F92AF92BF92EF920F931F93CF9315
:1010C000DF9300D000D000D0CDB7DEB74A015B017E
:1010D00009831A832B833C838D839E8310E09401C4
:1010E000A50169817A818B819C811E1540F50E9442
:1010F000AC2720E030E04CE452E40E947C2920E060
:1011000030E040E05FE30E94AC270E949628ED812A
:10111000FE816193ED83FE831F5F143601F70F900C
:101120000F900F900F900F900F90DF91CF911F9124
:101130000F91EF90BF90AF909F908F9008950E9475
:10114000AB27D7CFA89588E190EC0FB6F894A89577
:10115000809360000FBE9093600008950E94461730
:101160008091AD018230D0F30E94C80BF7CFCF93AE
:10117000DF9300D000D000D00F92CDB7DEB77E0154
:101180008FEFE81AF80AEE82FF82E091D901F09120
:10119000DA01B08000E010E0B11429F00580F6819A
:1011A000E02D008111810E94D01A0E94D61A6C0194
:1011B0008091D1019091D201C816D90608F046C09D
:1011C0000E942126C092D101D092D2010E94F11B2F
:1011D000D701E5E01D92EA95E9F740E050E06E8125
:1011E0007F818091D5019091D6010E947A0F81155F
:1011F00061F2898187FDF1CF0C811D81D8011A969A
:101200008D919D91892B21F0C80102960E948C0B33
:101210000E94D61A6C018091D1019091D201C8161A
:10122000D90610F40E942126C092D101D092D20199
:10123000E981E150E93088F6FE2FFF0FFF0BEA56F7
:10124000FE4CD80152968C910C949127C092D101FA
:10125000D092D201B11451F0C016D10670F00E94A4
:10126000F11BB601C8010E94E525B2CFE091D7017C
:10127000F091D80141E08081811140E0B8016C1902
:101280007D098091D5019091D6010E94FA110E94AA
:10129000F11B81119DCF0E94C80B9ACF8160F8018C
:1012A000828B2A813B8164857585620F731FA6013D
:1012B000C8010E948525811509F48FCFD801529667
:1012C0008C91529782FF12C06A817B811C968D910E
:1012D0009D91680F791FA601C8010E94AF25D80112
:1012E0005096ED91FD91C801099577CF8E7FF80159
:1012F000828BF5CF8160D80152968C936A817B8175
:1013000016976D937D936C0D7D1D9601A601C80106
:101310000E94852562CF81FD04C0C8010E941A0B7E
:101320005CCF8E7FF801828B58CF0E9430010E94E3
:101330004401CF93DF938BE090E00E94020BEC011D
:10134000009731F0FC0111921192CF010E942B0BFA
:10135000CE01DF91CF910895AF92BF92CF92DF92ED
:10136000EF92FF920F931F93CF93DF93EC017B01DA
:10137000B42EA22E68010E94D01A08811981C801DA
:101380008E219F21A11016C0892BB9F4C114D1045C
:10139000E9F081E0B11001C080E0782FA110746005
:1013A0006E2D7F29A601CE0102960E94D41D00E079
:1013B00010E00EC08E159F0549F7B11439F0C70132
:1013C000809590958023912388839983C12CD12C7B
:1013D0000E94F11BCD28C1F0811102C00E94C80BF0
:1013E0000E9428218C0191FD0EC00FB6F8940F9237
:1013F00008811981C70180239123A11011C0892B75
:1014000091F40F900FBE10E0C801DF91CF911F91B2
:101410000F91FF90EF90DF90CF90BF90AF90089525
:10142000E816F90671F7B11461F3B701609570958C
:101430006023712368837983E4CFFC010FB6F894AD
:101440000F928081918160957095682379236083E4
:1014500071830F900FBE0895FC01808191810895E2
:10146000CF92DF92EF92FF920F931F93CF93DF9370
:10147000EC018B017C0185E0E80EF11C0E94D01A82
:10148000EF81F88568817981602B712B688379837E
:1014900000E010E068817981EE15FF0599F4009570
:1014A000109506231723088319830E94F11B888156
:1014B0009981DF91CF911F910F91FF90EF90DF9075
:1014C000CF900895C280D38020813181822F90E017
:1014D000AC01462332FD04C0452B29F4F601DACFD6
:1014E00084179507D9F730FD082B7260CF010E9451
:1014F000FF1EF4CFAF92BF92CF92DF92EF92FF9296
:101500000F931F93CF93DF937C01EB018A01690155
:101510000E94D01AF701A080B180BE01C7010E94CD
:10152000300ACA29DB29CE01802391238017910735
:1015300009F03BC0F7018081918198012095309599
:101540008223932380839183C12CD12C0E94F11B91
:10155000CD28F9F0811102C00E94C80B0E942821F9
:10156000EC0191FD15C00FB6F8940F92F701C08100
:10157000D181C8018C239D238017910739F4A801DC
:10158000409550954C235D23408351830F900FBEAF
:10159000D0E0CE01DF91CF911F910F91FF90EF909E
:1015A000DF90CF90BF90AF900895C114D10451F057
:1015B000A601B8017560C70102960E94D41DC0E063
:1015C000D0E0C4CFF701C081D181C0CFCF93DF93EA
:1015D000EC010E94D01A8A81811107C00E94F11B80
:1015E000CE01DF91CF910C941A0B60E072E08F81F5
:1015F00098850E94FF1EEFCFBA010C94300ABA0101
:101600000C941D0ACF93DF9300D0CDB7DEB789834A
:101610009A830E94D01A89819A810E949E2A898386
:101620009A830E94F11B89819A810F900F90DF911C
:10163000CF910895CF93DF93EC01892B49F00E945D
:10164000D01ACE010E94342BDF91CF910C94F11B64
:10165000DF91CF910895FC010396818392832FEF50
:101660003FEF23833483858396838783908710821B
:101670000895FC01108611860895CF93DF93DC0155
:10168000FB0111968D919D91139782839383EC01B9
:101690002C813D81248335832C813D81E9016A833E
:1016A000FB83EC016C83FD83A087B1878C918F5FF6
:1016B0008C93DF91CF910895CF93DF93DC01FB01F1
:1016C000408151819C012D5F3F4F4F3F5407C9F42A
:1016D00017968D919D911997EC012A813B81228368
:1016E0003383E901EC83FD8384839583EC01EA83F2
:1016F000FB83A087B1878C918F5F8C93DF91CF9113
:101700000895C901E9012A813B81E9016881798154
:1017100046175707B0F7E0CFCF93DF93FC01A085C2
:10172000B1852281338184819581E9018C839D83F8
:1017300084819581EC012A833B8311962D913D9103
:1017400013972E173F0721F411968D939D931397AE
:10175000108611868C9181508C93DF91CF910895E2
:10176000FC0160837293129220E822931292779781
:1017700040835293839708950FB6F894A89580916B
:101780006000886180936000109260000FBE089531
:101790000F920FB6F8940F921F9211242F923F923E
:1017A0004F925F926F927F928F929F92AF92BF9271
:1017B000CF92DF92EF92FF920F931F932F933F935D
:1017C0004F935F936F937F938F939F93AF93BF9349
:1017D000CF93DF93EF93FF93A0916A01B0916B01D8
:1017E0000DB60D920EB60D920E942E1DA0916A01AB
:1017F000B0916B01CD91CDBFDD91DEBFFF91EF9137
:10180000DF91CF91BF91AF919F918F917F916F9118
:101810005F914F913F912F911F910F91FF90EF900A
:10182000DF90CF90BF90AF909F908F907F906F9000
:101830005F904F903F902F901F900F900FBE0F9092
:1018400008950F920FB6F8940F921F9211242F92C1
:101850003F924F925F926F927F928F929F92AF9240
:10186000BF92CF92DF92EF92FF920F931F932F932D
:101870003F934F935F936F937F938F939F93AF9318
:10188000BF93CF93DF93EF93FF93A0916A01B09141
:101890006B010DB60D920EB60D920E942E1DA091F9
:1018A0006A01B0916B01CD91CDBFDD91DEBFFF919B
:1018B000EF91DF91CF91BF91AF919F918F917F91E8
:1018C0006F915F914F913F912F911F910F91FF90D9
:1018D000EF90DF90CF90BF90AF909F908F907F90D0
:1018E0006F905F904F903F902F901F900F900FBE82
:1018F0000F9018950F920FB6F8940F921F92112423
:101900002F923F924F925F926F927F928F929F920F
:10191000AF92BF92CF92DF92EF92FF920F931F93FD
:101920002F933F934F935F936F937F938F939F93E7
:10193000AF93BF93CF93DF93EF93FF93A0916A018F
:10194000B0916B010DB60D920EB60D9213BE0E94B2
:10195000F21A81110E942E1DA0916A01B0916B01B3
:10196000CD91CDBFDD91DEBFFF91EF91DF91CF91A2
:10197000BF91AF919F918F917F916F915F914F91A7
:101980003F912F911F910F91FF90EF90DF90CF909B
:10199000BF90AF909F908F907F906F905F904F908F
:1019A0003F902F901F900F900FBE0F9008950E94B0
:1019B000A208A0916A01B0916B01CD91CDBFDD91DC
:1019C000DEBFFF91EF91DF91CF91BF91AF919F91DA
:1019D0008F917F916F915F914F913F912F911F91C7
:1019E0000F91FF90EF90DF90CF90BF90AF909F90BE
:1019F0008F907F906F905F904F903F902F901F90AF
:101A00000F900FBE0F90089581E008950E947A0C08
:101A10001895FC010FB6F8940F92928D0F900FBE9F
:101A200081E0911180E008950F931F93CF93DF938E
:101A3000EC01042F1A8D4C8D411113C088819981BE
:101A4000892B11F080E006C08C819D810E947C2052
:101A50001C821D821F5F1A8FDF91CF911F910F9102
:101A6000089550E0011115C08A819B810E94C52B09
:101A70002C8D8A819B81820F911D8A839B832C816F
:101A80003D8182179307F0F2888199818A839B8335
:101A9000D9CF8E819F810E94C52B8C8D90E02E81A5
:101AA0003F81281B390B2E833F834881598124179E
:101AB000350730F42C813D81281B390B2E833F8361
:101AC000023009F0BFCF81E0111101C080E0181B86
:101AD000B9CFFC019B01948D9115A1F0492F50E0E5
:101AE00066817781690F711D668377838481958113
:101AF0006817790720F06081718166837783C90157
:101B00000C94C52B08951F93CF93DF9300D000D082
:101B1000CDB7DEB78B839C830FB6F8940F92EB8121
:101B2000FC81168D7196E983FA8311162CF4EB81F2
:101B3000FC818189811122C08FEFEB81FC81868F2E
:101B40000F900FBE0FB6F8940F92158D3896E9835B
:101B5000FA8311162CF4EB81FC818085811117C06A
:101B60008FEFEB81FC81858F0F900FBE0F900F9050
:101B70000F900F90DF91CF911F91089589819A81E5
:101B80000E94521E81110E94D11F1150CECF898117
:101B90009A810E94521E81110E94D11F1150D9CFEB
:101BA000CF93DF93EC0180E0209789F18B8D811535
:101BB00071F10FB6F8940F92888199812B8D4C8D1D
:101BC000FC01249FE00DF11D1124EC83FD831A8E8E
:101BD0008A839B832150330B429FF001439FF00D7A
:101BE00011248E0F9F1F8E839F838FEF8D8F8E8F7B
:101BF000611110C08885811539F0CE0108960E94C8
:101C0000521E81110E94C80B0F900FBE81E0DF9120
:101C1000CF910895CE0108960E942B0BCE014196DC
:101C20000E942B0BF1CF0F931F93CF93DF93082FBD
:101C3000162F811108C0C0E0D0E0CE01DF91CF9116
:101C40001F910F910895869FC00111244F960E9405
:101C5000020BEC01009779F311114F968883998359
:101C60000B8F1C8F61E0CE010E94D00DE6CFCF9389
:101C7000C62F811569F0861758F042E060E00E9497
:101C8000130EFC01892B09F0C28FCF01CF9108956B
:101C9000E0E0F0E0FACF0F931F93CF93DF93CDB73F
:101CA000DEB72A970FB6F894DEBF0FBECDBF8C010A
:101CB00069877A874C835D832E8380E09801285F53
:101CC0003F4F2F8338870FB6F8940F92F801228D7B
:101CD000938D2917F8F44E8169857A85C8010E9491
:101CE000140DF8019189911521F0C80141960E94C7
:101CF000521E81110E94C80B0F900FBE81E02A96E0
:101D00000FB6F894DEBF0FBECDBFDF91CF911F910C
:101D10000F910895FE81F230F1F22C813D81232B49
:101D200021F40F900FBE80E0EACF811104C0CE01F4
:101D300001960E94921F0F900FBE0E94D01A0FB6FC
:101D4000F8940F92F801858D8F3F09F4158EF801F4
:101D5000868D8F3F09F4168E0F900FBEBE016C5F0B
:101D60007F4FCE0101960E949D1F811121C00FB6A9
:101D7000F8940F92F801928D838D0F900FBE9813F7
:101D800011C06C817D818F8198850E94BC1DC80126
:101D90000E94830D0E94F11B811102C00E94C80B9A
:101DA00081E091CFC8010E94830D0E94F11BF8CF02
:101DB000C8010E94830D0E94F11BB5CFCF93DF9322
:101DC000482F60E081E00E94130EEC01009759F06B
:101DD0001C821D82188219821E8220E040E050E0A1
:101DE000BA010E944B0ECE01DF91CF9108950F935F
:101DF0001F93CF93DF93EC010C811D810E94E81F9C
:101E00000817190799F48E8181508E83811531F05E
:101E100081E0DF91CF911F910F91089520E040E084
:101E200050E0BA01CE010E944B0EF2CF80E0F1CF1C
:101E3000EF92FF921F93CF93DF93EC017A019A8D7B
:101E40008B8D981718F080E02230C1F41E8D8A8D9A
:101E5000422FCE010E94140D1F3FB1F489898115D4
:101E600061F0CE0141960E94521E811531F0E114BD
:101E7000F10419F081E0F701808381E0DF91CF91D7
:101E80001F91FF90EF9008950E94E51A1817A8F788
:101E90001F5F1E8FF2CFEF92FF921F93CF93DF93BE
:101EA000EC017B018A8D9B8D891710F51E8D8F5F4C
:101EB0008A8F1F3FB1F48989811561F0CE01419667
:101EC0000E94521E811531F0E114F10419F081E0F5
:101ED000F701808381E0DF91CF911F91FF90EF9018
:101EE00008950E94E51A1817A8F71F5F1E8FF2CFFA
:101EF00080E0F1CFFF920F931F93CF93DF93CDB785
:101F0000DEB729970FB6F894DEBF0FBECDBF8C01A8
:101F1000688779874C835D8380E098012F5E3F4F0F
:101F20002E833F830FB6F8940F92F801F28CF114D0
:101F300009F168857985C8010E94690DFA94F80154
:101F4000F28E8085811539F0C80108960E94521ED4
:101F500081110E94C80B0F900FBE81E029960FB629
:101F6000F894DEBF0FBECDBFDF91CF911F910F91CF
:101F7000FF9008952C813D81232B21F40F900FBEFB
:101F800080E0ECCF811104C0CE0101960E94921F27
:101F90000F900FBE0E94D01A0FB6F8940F92F8015E
:101FA000858D8F3F09F4158EF801868D8F3F09F4DA
:101FB000168E0F900FBEBE016C5F7F4FCE01019653
:101FC0000E949D1F81111CC0C8010E94090D81152E
:101FD00089F06C817D818E819F810E94BC1DC8012A
:101FE0000E94830D0E94F11B811102C00E94C80B48
:101FF00081E098CFC8010E94830D0E94F11BF8CFA9
:10200000C8010E94830D0E94F11BC8010E94090DA6
:10201000811571F3B5CFFF920F931F93CF93DF9389
:1020200000D000D000D00F92CDB7DEB78C016C830A
:102030007D83F12C90E098012F5E3F4F2E833F83EC
:102040000FB6F8940F92D8015A968C915A97811531
:1020500041F181505A968C935A978D919D91892B7D
:1020600029F40E943F21F80184839583D8011896B2
:102070008C91811539F0C80108960E94521E811179
:102080000E94C80B0F900FBE81E027960FB6F89400
:10209000DEBF0FBECDBFDF91CF911F910F91FF909B
:1020A00008952C813D81232B21F40F900FBE80E0F9
:1020B000ECCF911104C0CE0101960E94921F0F90A7
:1020C0000FBE0E94D01A0FB6F8940F92F801858DBA
:1020D0008F3F09F4158ED8015E968C915E978F3FE5
:1020E00011F45E961C920F900FBEBE016C5F7F4F85
:1020F000CE0101960E949D1F81112DC0C8010E9432
:10210000090D811511F1F80180819181892B61F40C
:102110000FB6F8940F92D80114968D919D910E945C
:102120000420F82E0F900FBE6C817D818E819F81DF
:102130000E94BC1DC8010E94830D0E94F11B8111E9
:1021400002C00E94C80B91E07BCFC8010E94830DA2
:102150000E94F11BF8CFC8010E94830D0E94F11B61
:10216000C8010E94090D811571F3F11409F49FCF84
:102170000FB6F8940F92F8016189611531F0068865
:10218000F789E02D808164E0681BD80114968D9159
:102190009D910E94C92089CF0F931F93CF93DF9306
:1021A00000D000D0CDB7DEB78B839C8369837A8360
:1021B000FC01048115810E94E81F0817190739F4F2
:1021C000EB81FC8186818F5F868381E008C0698115
:1021D0007A818B819C810E940B108111F1CF0F902D
:1021E0000F900F900F90DF91CF911F910F91089555
:1021F000EF92FF920F931F93CF93DF9300D000D005
:1022000000D00F92CDB7DEB78C016E837F834C83F5
:102210005D8380E0780191E1E90EF11C0FB6F8943E
:102220000F92F801928D911521F1E680F7806E8171
:102230007F81C8010E94690DF801E682F7828189D9
:10224000811539F0C80141960E94521E81110E94E9
:10225000C80B0F900FBE81E027960FB6F894DEBF33
:102260000FBECDBFDF91CF911F910F91FF90EF90E7
:1022700008952C813D81232B21F40F900FBE80E027
:10228000EBCF811104C0CE0101960E94921F0F90E6
:102290000FBE0E94D01A0FB6F8940F92F801858DE8
:1022A0008F3F09F4158EF801868D8F3F09F4168E45
:1022B0000F900FBEBE016C5F7F4FCE0101960E9452
:1022C0009D1F81111BC0C8010E94090D811581F05D
:1022D0006C817D81C7010E94BC1DC8010E94830DD5
:1022E0000E94F11B811102C00E94C80B81E096CFB1
:1022F000C8010E94830D0E94F11BF8CFC8010E9403
:10230000830D0E94F11BC8010E94090D811571F314
:10231000B6CFEF92FF920F931F93CF93DF93EC0111
:102320007A010A8D80E00115C1F01D8DCE010E9459
:10233000690D01500A8F1F3FB9F48885811561F03E
:10234000CE0108960E94521E811531F0E114F1046D
:1023500019F081E0F701808381E0DF91CF911F9137
:102360000F91FF90EF9008950E94E51A1817A0F7BB
:102370001F5F1D8FF1CF0F931F93CF93DF93EC015E
:102380008A8D811541F00E811F81CE010E94690D59
:102390000E831F8381E0DF91CF911F910F910895EC
:1023A000FC010FB6F8940F92828D0F900FBE089526
:1023B000FC010FB6F8940F92928D838D891B0F90BC
:1023C0000FBE0895FC01828D08950C941A0BFC0138
:1023D000848D0895FC01838D0895FC01928D81E028
:1023E000911180E00895FC01928D81E0238D2913E5
:1023F00080E00895CF93DF93EC010FB6F8940F922D
:102400008D8D8F3F09F41D8E8E8D8F3F09F41E8EAA
:102410000F900FBE8A8D811104C0CE0141960E949B
:10242000151ECE01DF91CF910C94830DFC01248108
:10243000358182819381820F931F40815181841B5A
:10244000950B8217930710F0821B930B08958F92C0
:102450009F92AF92BF92CF92DF92EF92FF920F9333
:102460001F93CF93DF936C015B018A01E901FC01AB
:10247000E480F580E21AF30A47014E155F0508F47F
:102480004A01F60184859585A401B5018C0F9D1F35
:102490000E94C52BE016F10658F4A8014819590905
:1024A000B501680D791DF601848595850E94C52BBF
:1024B000CE01800F911FF601248135818217930789
:1024C00010F0821B930BDF91CF911F910F91FF9022
:1024D000EF90DF90CF90BF90AF909F908F90089536
:1024E000CF92DF92EF92FF920F931F93CF93DF93E0
:1024F00000D000D0CDB7DEB76C016B837C837A014E
:10250000C901F60122813381468540FF28C0E98256
:10251000FA828017910740F142E050E0BE016F5F00
:102520007F4FC6010E9427129C01E114F10449F07B
:10253000A7016B817C81C6010E942712F60193835B
:102540008283C7010F900F900F900F90DF91CF9172
:102550001F910F91FF90EF90DF90CF9008958E150F
:102560009F0518F77C01E1CFE12CF12CEACF8F9287
:102570009F92AF92BF92CF92DF92EF92FF920F9312
:102580001F93CF93DF936C014B018A01E901FC019A
:10259000E480F580E21AF30A57014E155F0508F44E
:1025A0005A01F601648575856C0F7D1FA501C40174
:1025B0000E94C52BE016F10658F4A8014A195B09E0
:1025C000F60164857585C4018A0D9B1D0E94C52B8B
:1025D000CE01800F911FF601248135818217930768
:1025E00010F0821B930BDF91CF911F910F91FF9001
:1025F000EF90DF90CF90BF90AF909F908F90089515
:10260000CF92DF92EF92FF920F931F93CF93DF93BE
:1026100000D000D0CDB7DEB77C016B837C836A012C
:102620008901FC0120813181868580FF11C042E053
:1026300050E0BE016F5F7F4FC7010E94B7129C013F
:1026400089819A81C816D90608F1025011096C01D6
:10265000C016D10608F486010115110549F0A8013C
:102660006B817C81C7010E94B712F701918380833F
:10267000C8010F900F900F900F90DF91CF911F9195
:102680000F91FF90EF90DF90CF90089500E010E061
:10269000EFCF0F931F93CF93DF9300D00F92CDB75F
:1026A000DEB78C0169837A834130B1F181E08B839D
:1026B000423009F01B82AB81AA0FAA0FAB83E0E086
:1026C000F0E00F3E8FEF1807F0F4C80141960E942A
:1026D000020BFC01892BB9F080E1DF011D928A9584
:1026E000E9F7CF014096848795870F5F1F4F0483DA
:1026F000158389819A81009711F481E090E08683A7
:102700009783BB81B687CF010F900F900F90DF9119
:10271000CF911F910F910895B1E0BB83D0CFFC0101
:10272000268521FF0C941A0B20E111922A95E9F7D6
:102730000895FC010FB6F8940F9280859185892B3E
:10274000D9F482859385892BB9F4868526813781D2
:10275000448155816485758590E1DF011D929A95CC
:10276000E9F7648775874483558326833783868793
:1027700081E00F900FBE089580E0FBCFFC018085C3
:102780009185892BC9F482859385892BA9F4868547
:1027900026813781448155816485758590E1DF010B
:1027A0001D929A95E9F7648775874483558326833C
:1027B0003783868781E0089580E008959B01672B29
:1027C00011F421E030E0FC014481558124173507E4
:1027D00020F42683378381E0089580E00895FC018A
:1027E0002481358160817181808191814281538111
:1027F000A081B181A617B707A9F7820F931F019790
:10280000841B950B8217930710F0821B930B08957E
:102810000C9416124F925F926F927F928F929F92BA
:10282000AF92BF92CF92DF92EF92FF920F931F93DE
:10283000CF93DF93CDB7DEB729970FB6F894DEBFFD
:102840000FBECDBF5C01688779873A012C833D8339
:10285000FC0184819581019726854A0120FF4FC0A4
:10286000F2E08F0E911C8815990508F04CC01C826F
:102870001D82C5010E94EF132C0184019201A30166
:1028800068857985C5010E9470126C01892BF9F069
:10289000C5010E941612F501268137818217930720
:1028A000B0F00E94D01AF50180859185892B69F0DE
:1028B00080859185E12CF12C87019701A70167851F
:1028C0000E949222F501118610860E94F11BC6011A
:1028D00029960FB6F894DEBF0FBECDBFDF91CF9122
:1028E0001F910F91FF90EF90DF90CF90BF90AF902E
:1028F0009F908F907F906F905F904F900895841776
:10290000950708F44C018C819D81892B09F4B1CF86
:102910008E010F5F1F4FC8010E94821F0E831F830D
:102920000FB6F8940F92C5010E94EF132C01881581
:10293000990548F5F501678580E090E00E941F2524
:102940000E94E81FF501938782870F900FBECC800D
:10295000DD80E12CF12C87019701A701B701878564
:102960000E94D121F50113861286BE016C5F7F4F54
:102970008E819F810E949D1F811591F24114510407
:1029800009F477CF7ACF0F900FBEF8CFAF92BF92F6
:10299000CF92DF92EF92FF920F931F93CF93DF932B
:1029A000EC015B017A0169018E858A0180FF02C01A
:1029B0000E5F1F4FCE010E94EF139C01A701B501CE
:1029C000CE010E9470125C01892BC1F0CE010E94E1
:1029D00016122E813F818217930780F08885998592
:1029E000892B61F088859985E12CF12C870197016D
:1029F000A7016F850E94702319861886C501DF9193
:102A0000CF911F910F91FF90EF90DF90CF90BF90EB
:102A1000AF900895AF92BF92CF92DF92EF92FF9264
:102A20000F931F93CF93DF9300D000D000D0CDB78A
:102A3000DEB78D839E8369837A834B835C836901D0
:102A4000ED81FE81868580FD51C0A12CB12C82FFD5
:102A500002C0A680B780C114D10409F44BC00FB6E0
:102A6000F8940F928D819E810E9416128C01A816F7
:102A7000B90668F0ED81FE81678580E090E00E94F4
:102A80001F250E94E81FED81FE81918780870F90AE
:102A90000FBEA016B10688F1E12CF12C8701970139
:102AA000A701B701ED81FE8187850E94D121ED81CB
:102AB000FE8111861086CF010E9416128C01A81685
:102AC000B906D8F0C12CD12CC6010F900F900F90F1
:102AD0000F900F900F90DF91CF911F910F91FF906A
:102AE000EF90DF90CF90BF90AF90089582E0A82E36
:102AF000B12CB1CF8D819E81DFCF98014B815C815C
:102B000069817A818D819E810E9400136C01892BDD
:102B1000C9F20E94D01AED81FE8182859385892BAE
:102B200071F082859385E12CF12C87019701A70133
:102B300067850E949222ED81FE81138612860E9493
:102B4000F11BC2CF0F931F93CF93DF9300D0CDB76C
:102B5000DEB78C01FC01868580FD09C080E090E035
:102B60000F900F90DF91CF911F910F910895C801A1
:102B70000E941612039790F3F8012081318142E000
:102B800050E0BE016F5F7F4FC8010E94B71289817C
:102B90009A81E6CFAF92BF92CF92DF92EF92FF92EF
:102BA0000F931F93CF93DF93EC017B015A016901CF
:102BB0008E8502E010E080FF00E0CE010E94161238
:102BC0000817190770F0A12CB12CC501DF91CF9126
:102BD0001F910F91FF90EF90DF90CF90BF90AF903B
:102BE00008959C01A501B701CE010E9400135C016C
:102BF000892B49F38A859B85892B39F38A859B85A7
:102C0000E12CF12C00E09701A7016F850E94702351
:102C10001B861A86DACFFC012081318142815381E3
:102C200081E04217530709F080E00895CF93DF93C6
:102C3000FC012685C2E0D0E020FFC0E00E94EF1337
:102C40009C0181E0C217D30708F480E0DF91CF91A7
:102C50000895CF92DF92EF92FF920F931F93CF933D
:102C6000DF93EC0188859985892BB9F08885998552
:102C70006B01E12CF12C87019701A7016F850E9460
:102C800070231986188681E0DF91CF911F910F91F3
:102C9000FF90EF90DF90CF90089580E0F5CFCF9236
:102CA000DF92EF92FF920F931F93CF93DF93EC018C
:102CB0008A859B85892BB9F08A859B856B01E12CE0
:102CC000F12C87019701A7016F850E9470231B8655
:102CD0001A8681E0DF91CF911F910F91FF90EF90C5
:102CE000DF90CF90089580E0F5CFFC0187850895AF
:102CF000FC01678708950F931F93CF93DF9300D054
:102D000000D000D00F92CDB7DEB78E839F836D8346
:102D100000917801109179012091990130919A01E7
:102D200029833A8380919701909198018B839C83AA
:102D300080916A0190916B0102960E948C0B2E810A
:102D40003F812F3F3F4F09F040C09D819115E9F130
:102D5000E0917C01F0917D01A0916A01B0916B013D
:102D60001496ED93FD93A0916A01B0916B0184815B
:102D7000958116968D939D9380916A0190916B0138
:102D8000A481B581029612968D939D9380916A01DC
:102D900090916B01029684839583E0916A01F09192
:102DA0006B018BE791E08287938780917B018F5F36
:102DB00080937B0127960FB6F894DEBF0FBECDBF80
:102DC000DF91CF911F910F9108952E813F81200FA8
:102DD000311F2E833F83E0916A01F0916B012283C2
:102DE000338360916A0170916B016E5F7F4F201792
:102DF000310770F48B819C8127960FB6F894DEBF63
:102E00000FBECDBFDF91CF911F910F910C945C0B42
:102E100089819A810E945C0B80916F019091700171
:102E20002E813F812817390728F6309370012093AF
:102E30006F01C0CFFC01828593858B57914061F46F
:102E40008489958921E08E38920731F0892B21F40D
:102E500097A581E0913009F480E00895E09199010F
:102E6000F0919A018081811107C08FEF9FEF9093BD
:102E7000700180936F010895E0919901F0919A019A
:102E80000580F681E02D80819181F1CFCF93DF9392
:102E900080918401811103C0DF91CF9108950FB615
:102EA000F8940F92E0918A01F0918B01C681D7814D
:102EB000CE0102960E948C0B80917A018150809302
:102EC0007A01809184018150809384010F900FBE1C
:102ED0008F89988D0E941A0BCE010E941A0BD8CFB1
:102EE0008F929F92AF92BF92CF92DF92EF92FF921A
:102EF0000F931F93CF93DF9300D000D000D00F9299
:102F0000CDB7DEB789839A836B015A012B833C834B
:102F10000D83CA010E94020B8C01892BA1F48FEF53
:102F200027960FB6F894DEBF0FBECDBFDF91CF91CD
:102F30001F910F91FF90EF90DF90CF90BF90AF90D7
:102F40009F908F90089580E390E00E94020B4C01C7
:102F5000892B09F4D7C080E3D4011D928A95E9F743
:102F6000F401078B108FA50165EA70E0C8010E948B
:102F7000CE2BC5010197D4015796AD90BD90A80EF8
:102F8000B91EC114D10409F0C1C0DD80F4E0DF1620
:102F900010F023E0D22ED4015696DC925396DC92A8
:102FA00084010E5F1F4FC8010E94390BC4010C96AB
:102FB0000E94390BF4018086918684E090E08D199F
:102FC000910984879587828A938A4B815C81698184
:102FD0007A81C5010E94B00BD4018D939D93E114B9
:102FE000F10419F0F701808291820FB6F8940F92E4
:102FF00080917A018F5F80937A0180916A0190912C
:103000006B01892B09F094C090926B0180926A0148
:1030100080917A01813089F58DEAE82E81E0F82EE1
:1030200091EDC92E91E0D92EC7010E942B0BF9E03A
:10303000EF0EF11CCE14DF04B9F784EA91E00E9490
:103040002B0B8BE991E00E942B0B8EE891E00E9404
:103050002B0B85E891E00E942B0B8BE791E00E94FF
:103060002B0B84EA91E090939A01809399018BE96C
:1030700091E09093980180939701809171018F5F07
:1030800080937101F401A689809177018A1710F469
:10309000A093770129E02A9FD0011124A355BE4FA8
:1030A00011960D90BC91A02DF401A483B5831496C4
:1030B0008D919D91868397839E918E91FC010283D1
:1030C00013830D931D93D40156968C91289FF00184
:1030D0001124E355FE4F1C97ED93FD9380818F5F84
:1030E00080830F900FBE80917601811549F0E091A9
:1030F0006A01F0916B019689F4018689981760F155
:1031000081E00ECFC8010E941A0B09CFF601D4014D
:1031100059969601205F3F4F80818C93811529F04D
:1031200031961196E217F307B9F7F40110A62DCFE7
:10313000809176018111A1CFE0916A01F0916B013C
:103140008689D40156969C91981708F496CF909250
:103150006B0180926A0191CF0E94C80BD1CF0F936F
:103160001F93CF93DF93EC010FB6F8940F92892B46
:1031700021F4C0916A01D0916B018E010E5F1F4F47
:10318000C8010E948C0B8C899D89892B21F0CE016E
:103190000C960E948C0B809171018F5F809371015E
:1031A00080916A0190916B0120917601211559F16E
:1031B0008C179D0741F5B80185E891E00E943D0B11
:1031C000809184018F5F8093840181E00F900FBE16
:1031D000813039F08F89988D0E941A0BCE010E94A0
:1031E0001A0B80917601811549F080916A019091C6
:1031F0006B018C179D0711F40E94C80BDF91CF91D2
:103200001F910F91089580917A01815080937A01E6
:103210000E942E1780E0DACFFC010FB6F8940F92CF
:10322000892B21F4E0916A01F0916B0186890F905E
:103230000FBE0895FC01892B21F4E0916A01F09101
:103240006B0186890895FC010FB6F8940F92892BC3
:1032500021F4E0916A01F0916B0181A50F900FBEFE
:103260000895FC01892B21F4E0916A01F0916B0132
:1032700081A50895EF92FF921F93CF93DF93EC0106
:10328000643008F063E00FB6F8940F92209721F4B1
:10329000C0916A01D0916B0199A5961709F46AC093
:1032A00088F420916A0130916B012C173D0741F0A1
:1032B000E0916A01F0916B0111E08689861750F068
:1032C00010E008C020916A0130916B0111E02C17C9
:1032D0003D07B1F78E89981711F0861708F46E8BA9
:1032E00069A72C853D8537FD06C024E030E0261B0C
:1032F00031092C873D8729E0829FC0011124835525
:103300009E4F2A853B852817390789F57E0182E083
:10331000E80EF11CC7010E948C0BAE8980917701E9
:103320008A1710F4A093770129E02A9FD001112475
:10333000A355BE4F11960D90BC91A02DAC83BD83BB
:1033400014968D919D918E839F839E918E91FC0109
:10335000E282F382ED92FD928E89289FF001112482
:10336000E355FE4FEA87FB8780818F5F80831111D1
:103370000E94C80B0F900FBEDF91CF911F91FF905D
:10338000EF9008950F931F93CF93DF93EC018091FB
:103390006A0190916B018C179D0709F447C0209733
:1033A00009F444C00FB6F8940F92CE010E941A1788
:1033B0008115D1F18E010E5F1F4FC8010E948C0B49
:1033C000AE89809177018A1710F4A093770129E0E4
:1033D0002A9FD0011124A355BE4F11960D90BC9188
:1033E000A02DAC83BD8314968D919D918E839F8378
:1033F0009E918E91FC01028313830D931D938E8900
:10340000289FF0011124E355FE4FEA87FB87808156
:103410008F5F8083E0916A01F0916B0196898E89BC
:10342000981710F40E94C80B0F900FBEDF91CF9138
:103430001F910F910895EF92FF921F93CF93DF9307
:10344000EC010E941A17182F811509F450C08091C1
:103450006C01811145C0E0916A01F0916B018E8988
:1034600096899817D8F581E0809373017E0182E0F8
:10347000E80EF11CC7010E948C0BAE898091770188
:103480008A1710F4A093770129E02A9FD001112414
:10349000A355BE4F11960D90BC91A02DAC83BD835A
:1034A00014968D919D918E839F839E918E91FC01A8
:1034B000E282F382ED92FD928E89289FF001112421
:1034C000E355FE4FEA87FB8780818F5F8083812FE2
:1034D000DF91CF911F91FF90EF90089510E0C6CF3C
:1034E000BE01645F7F4F8EE891E00E943D0B10E0CB
:1034F000EECFEF92FF920F93CF93DF93CDB7DEB76E
:1035000060970FB6F894DEBF0FBECDBFA7E5B1E060
:10351000FE013196BF018D9181938111FCCF8DE623
:10352000E82E81E0F82E00E020E030E04CE550E0AD
:103530008EEA98E00E947017813099F40E94682604
:10354000813079F4F8942FEF3FEF3093700120939E
:103550006F018093760110927901109278010E9498
:10356000D70C8091150160960FB6F894DEBF0FBEA0
:10357000CDBFDF91CF910F91FF90EF9008950E9402
:103580002D270E94AF1880916D0190916E010E94CD
:10359000AF180E944617F894109276010C94BC0B59
:1035A00080916C018F5F80936C0108950FB6F89441
:1035B0000F9280917801909179010F900FBE08953C
:1035C0008091780190917901089580917A01089510
:1035D0009C01892B21F420916A0130916B01C90172
:1035E00049960895EF92FF920F931F93CF93DF9325
:1035F00080916C018111EAC0C0917801D09179016C
:1036000021967E01D0937901C0937801CD2BB9F436
:103610008091990190919A012091970130919801A0
:1036200030939A0120939901909398018093970188
:10363000809172018F5F809372010E942E1780919A
:103640006F0190917001E816F90608F4BDC090E092
:1036500069E0E0919901F0919A018081811125C082
:103660002FEF3FEF3093700120936F01E0916A01DB
:10367000F0916B0130917301E689D9E0ED9FF00183
:103680001124E355FE4F81E02081223008F480E0D0
:1036900021E0311101C020E0822B892BDF91CF91F5
:1036A0001F910F91FF90EF900895E0919901F09193
:1036B0009A010580F681E02D0680F781E02D2281B8
:1036C0003381E216F30670F2C285D38524813581F9
:1036D00046815781D90114964D935D932681378198
:1036E00044815581D90112964D935D939F012E5FC0
:1036F0003F4F49815A814217530721F44681578130
:1037000049835A8312861386888181508883A489CD
:10371000B589109719F14685578500891189EA0105
:103720000C831D834089518906851785EA010A8328
:103730001B8311960D911D911397AF01445F5F4F4D
:103740000417150731F44089518911964D935D9303
:103750001397148A158A8C9181508C93A689809135
:1037600077018A1710F4A09377016A9FD001112482
:10377000A355BE4F11960D90BC91A02DA483B58387
:1037800014964D915D91468357835E914E91EA0167
:103790002A833B832D933D93A6896A9FD0011124F0
:1037A000A355BE4FA287B3878C918F5F8C93A09156
:1037B0006A01B0916B0181E0268956963C913217DF
:1037C00008F080E0982B45CF90E050CF80917401B5
:1037D000909175010196909375018093740180E03A
:1037E0005DCF1F93CF93DF930FB6F8940F92809124
:1037F0006C01815080936C0180916C01811539F0CE
:1038000080E00F900FBEDF91CF911F9108958091BE
:103810007A018115A9F3E0E0F0E039E041E07EC0F3
:10382000E0919301F09194010680F781E02DA48945
:10383000B589C685D785808991898C839D83C08908
:10384000D189868597858A839B83CF010C961196B3
:103850006D917D9113976817790731F4808991896B
:1038600011968D939D931397148A158A8C9181508C
:103870008C93A285B385C481D581868197818C8301
:103880009D83C681D781848195818A839B83CF0163
:10389000029611966D917D9113976817790731F40F
:1038A0006681778111966D937D93139712861386A7
:1038B0002C9121502C93A689209177012A1710F47E
:1038C000A09377013A9FD0011124A355BE4F1196C2
:1038D0000D90BC91A02DA483B58314966D917D911C
:1038E00066837783DE91CE918A839B838D939D93AC
:1038F000A6893A9FD0011124A355BE4FA287B38752
:103900008C918F5F8C93A0916A01B0916B01868935
:1039100056969C91981710F44093730180918E01F4
:1039200081117ECFEF2B11F00E942E17C0917401F0
:10393000D0917501209761F011E00E94F21A811177
:10394000109373012197C9F71092750110927401B9
:1039500080917301811509F453CF80916A01909190
:103960006B010E94C80B81E04CCFCF93DF9300D056
:1039700000D0CDB7DEB78B839C8369837A830E94A6
:10398000D01A2091780130917901EB81FC8140813E
:10399000518189819A81840F951F24173507A0F4DE
:1039A00084179507A0F08083918319820E94F11BF0
:1039B000811102C00E94C80B89810F900F900F9057
:1039C0000F90DF91CF9108958417950730F0281755
:1039D000390718F0EB81FC81E6CFEB81FC81808315
:1039E000918360E0821B930B0E947B16F1E0F983C8
:1039F000DDCFCF93DF93EC01892B29F40E94C80B14
:103A0000DF91CF9108950E94D01A60E0CE010E940C
:103A10007B160E94F11B811589F3F2CFCF93DF93C0
:103A200000D0CDB7DEB789839A830E94D01A0FB633
:103A3000F8940F92809174019091750129813A81D7
:103A4000820F931F90937501809374010F900FBEA6
:103A50000F900F90DF91CF910C94F11B80916C012E
:103A6000811521F081E08093730108951092730114
:103A70008091770199E0899F90011124D901A35584
:103A8000BE4F9C91911509F11196ED91FD91028027
:103A9000F381E02DFE93EE93119720553E4FE217F0
:103AA000F30731F41596ED91FD911697ED93FD9383
:103AB0002681378130936B0120936A0180937701CF
:103AC00080916A0190916B0108958150D3CF0F933B
:103AD0001F93CF93DF93EC010FB6F8940F92892BCD
:103AE00021F4C0916A01D0916B018E010E5F1F4FCE
:103AF000C8010E948C0B8C899D89892B21F0CE01F5
:103B00000C960E948C0BB8018BE791E00E943D0B54
:103B10008FA5813009F41FA60F900FBE809176010A
:103B2000811539F00FB6F8940F920E942E170F905E
:103B30000FBE80916A0190916B018C179D0731F443
:103B400080917601811539F00E94C80BDF91CF91E9
:103B50001F910F91089590917A0180917B019813A4
:103B600005C010926B0110926A01F0CFDF91CF91E6
:103B70001F910F910C942E1DCF93DF9300D0CDB7E2
:103B8000DEB769837A8360916A0170916B01645F2B
:103B90007F4F0E945C0B61E089819A810F900F90AA
:103BA000DF91CF910C947B16CF93DF93FC01A09112
:103BB0006A01B0916B0170681C966D937D93A18131
:103BC000B28180916A0190916B01EC01AE87BF8751
:103BD00080916A0190916B0114962D913D91EC01B9
:103BE000288B398B20916A0130916B019E918E91C7
:103BF000245F3F4FEC012A833B8320916A0130917F
:103C00006B01245F3F4F2D933D93A0916A01B091CA
:103C10006B015496ED93FD9390819F5F908361E0DB
:103C2000CA01DF91CF910C947B16CF93DF93FC01F7
:103C3000CB01A181B28120916A0130916B01E90130
:103C4000AE87BF8720916A0130916B0114966D9108
:103C50007D91E901688B798B20916A0130916B012C
:103C60007E916E91245F3F4FEB012A833B8320912D
:103C70006A0130916B01245F3F4F2D933D93A091DA
:103C80006A01B0916B015496ED93FD9320812F5FF3
:103C90002083411511F08FEF9FEF642FDF91CF91BB
:103CA0000C947B16CF93DF93DC011596ED91FD917B
:103CB0000680F781E02DA489B589868597852089BE
:103CC0003189EC012C833D83808991892685378554
:103CD000EC012A833B83CF010C9611962D913D91E7
:103CE00013972817390731F42089318911962D93BC
:103CF0003D931397148A158A2C9121502C9320916F
:103D00006C0121115EC0A285B385848195812681D5
:103D10003781EC012C833D83868197812481358115
:103D2000EC012A833B839F012E5F3F4F11968D91BB
:103D30009D9113978217930731F48681978111968D
:103D40008D939D931397128613868C9181508C933B
:103D5000868990917701981710F480937701A9E0F4
:103D6000A89FC001112483559E4FEC0189819A813F
:103D700084839583EC014C815D81468357834C811C
:103D80005D81EA012A833B83EC012C833D83868994
:103D9000A89FD0011124A355BE4FA287B3878C9151
:103DA0008F5F8C93A0916A01B0916B0186895696C2
:103DB0009C91981710F581E080937301DF91CF916A
:103DC0000895A0918F01B0919001A687B7871496AE
:103DD0002D913D91208B318B3E912E91E9018A836B
:103DE0009B838D939D938EE891E0848B958B80913E
:103DF0008E018F5F80938E01D5CF80E0DFCFCF9390
:103E0000DF93DC0170686D937D931496ED91FD91C5
:103E10004D915D9118972D913D918D919D91E90165
:103E20008C839D839E918E911497EC012A833B8312
:103E3000EA0129813A812A173B0711F489839A8381
:103E400018961D921D92DA018C9181508C93A28557
:103E5000B385C481D581868197818C839D83C681FA
:103E6000D781848195818A839B839F012E5F3F4FF9
:103E700011968D919D9113978217930731F4868146
:103E8000978111968D939D931397128613868C912B
:103E900081508C93868990917701981710F48093C4
:103EA000770169E0689FC001112483559E4FEC01A2
:103EB00089819A8184839583DC0114964D915D916B
:103EC00046835783DE91CE912A833B832D933D9386
:103ED0008689689FD0011124A355BE4FA287B3875E
:103EE0008C918F5F8C93A0916A01B0916B01868950
:103EF00056969C91981718F481E080937301DF9196
:103F0000CF9108950FB6F8940F9220917201FC01A1
:103F100020832091780130917901218332830F90A1
:103F20000FBE089520917201FC0120832091780139
:103F300030917901218332830895CF93DF93FB0180
:103F40000FB6F8940F9260917801709179012081F9
:103F500031812F3F320719F1DC0111964D915D91AE
:103F6000A0917201EC01B881BA1759F06417750776
:103F700040F01082118281E00F900FBEDF91CF914F
:103F80000895DB01A41BB50BA217B30790F7261BFE
:103F9000370B240F351F208331830E94921F80E04E
:103FA000EBCF81E0809373010895FC01892B21F40C
:103FB000E0916A01F0916B010788F08DE02D80E0BF
:103FC00090E02081253A09F0089531960196F9CFC5
:103FD00080916A0190916B010895811105C08091D3
:103FE0006A0190916B01089580E090E008958091BE
:103FF0007601811539F090916C0181E0911180E09A
:10400000880F089581E008950F931F93CF93DF9356
:10401000EC01892B09F46EC08E89E0916A01F09160
:104020006B019689891708F05CC02C853D8537FDAA
:104030000BC0E0916A01F0916B01968924E030E0B9
:10404000291B31092C873D8729E0829FC00111245B
:1040500083559E4F2A853B8528173907D9F58E0150
:104060000E5F1F4FC8010E948C0BE0916A01F09116
:104070006B01A689AE8B809177018A1710F4A0930B
:10408000770129E02A9FD0011124A355BE4F119634
:104090000D90BC91A02DAC83BD8314968D919D9104
:1040A0008E839F839E918E91FC01028313830D93D7
:1040B0001D938E89289FF0011124E355FE4FEA8756
:1040C000FB8780818F5F808381E0DF91CF911F919B
:1040D0000F910895E0916A01F0916B0186898E8BB2
:1040E000F3CFE0916A01F0916B0181E029A59689F7
:1040F000291758F380E0E9CF0F931F93CF93DF93F5
:10410000EC01892B31F480E0DF91CF911F910F9169
:1041100008958AA581508AA72E8999A5291799F310
:104120008111F1CF8E010E5F1F4FC8010E948C0BD1
:10413000E9A5EE8B84E090E08E1B91098C879D872A
:10414000809177018E1710F4E093770189E08E9FBC
:10415000F0011124E355FE4F0180F281E02DEC8344
:10416000FD83248135812E833F83A481B5811296FE
:104170000D931D93048315839E89899FF00111245B
:10418000E355FE4FEA87FB8780818F5F808381E064
:10419000BBCF0F931F93CF93DF93EC01892B09F4CF
:1041A00052C099A5961708F4962F8E89891709F49D
:1041B0004AC02AA5213009F046C09E8B2C853D853A
:1041C00037FD06C024E030E0291B31092C873D87EC
:1041D00029E0829FC001112483559E4F2A853B858B
:1041E0002817390781F58E010E5F1F4FC8010E9405
:1041F0008C0BAE89809177018A1710F4A093770118
:1042000029E02A9FD0011124A355BE4F11960D908D
:10421000BC91A02DAC83BD8314968D919D918E830E
:104220009F839E918E91FC01028313830D931D93B6
:104230008E89289FF0011124E355FE4FEA87FB8702
:1042400080818F5F8083DF91CF911F910F910895BF
:10425000E0916A01F0916B0184859585A0916A01D6
:10426000B0916B01E0916A01F0916B0156964C910F
:1042700024E030E0241B310924873587089580919C
:104280006A0190916B01009721F0FC0122A52F5F3C
:1042900022A70895EF92FF920F931F93CF93DF937E
:1042A00000D00F92CDB7DEB7082F69837A010E9444
:1042B000D01A0FB6F8940F92E0916A01F0916B0159
:1042C00084E0089F900111242A833B83E20FF31FAF
:1042D00083A594A5A5A5B6A5892B8A2B8B2B61F464
:1042E000E0916A01F0916B01E00FF11D81E087A779
:1042F00011E0E114F10409F410E00F900FBE113049
:1043000021F461E0C7010E947B160E94F11B11306D
:1043100021F4811102C00E94C80B0FB6F8940F92CD
:10432000E0916A01F0916B012A813B81E20FF31F5A
:1043300063A574A585A596A500977040604079F0A7
:104340003981E0916A01F0916B013115D9F02A8130
:104350003B81E20FF31F13A614A615A616A6E09143
:104360006A01F0916B01E00FF11D17A60F900FBECF
:104370000F900F900F90DF91CF911F910F91FF90B1
:10438000EF9008952A813B81E20FF31F9B01AC015E
:10439000215031094109510923A734A745A756A740
:1043A000DECFCF92DF92EF92FF920F931F93CF93C6
:1043B000DF93CDB7DEB729970FB6F894DEBF0FBEF7
:1043C000CDBF898749835A836B837C830D831E838A
:1043D0002F8338870E94D01A0FB6F8940F92E0917D
:1043E0006A01F0916B012985E20FF11D87A58230EA
:1043F00051F1E0916A01F0916B0134E0239FC0011B
:104400001124E80FF91F43A554A565A576A5898158
:104410009A81AB81BC8180959095A095B0958423BD
:104420009523A623B72383A794A7A5A7B6A7E091B2
:104430006A01F0916B01E20FF11D81E087A711E0A5
:10444000C114D10409F410E00F900FBE113021F413
:1044500061E0C6010E947B160E94F11B113021F41D
:10446000811102C00E94C80B0FB6F8940F92E1149C
:10447000F104A1F0E0916A01F0916B01398524E02B
:10448000329FC0011124E80FF91F83A594A5A5A5AB
:10449000B6A5F70180839183A283B383E0916A017B
:1044A000F0916B012985E20FF11D87A58230C1F5DE
:1044B000E0916A01F0916B0134E0239FC001112467
:1044C000E80FF91F43A554A565A576A58D819E81AA
:1044D000AF81B88580959095A095B095842395235C
:1044E000A623B72383A794A7A5A7B6A781E0E09149
:1044F0006A01F0916B019985E90FF11D17A60F90E4
:104500000FBE29960FB6F894DEBF0FBECDBFDF9168
:10451000CF911F910F91FF90EF90DF90CF90089572
:1045200080E0E5CF8F929F92AF92BF92EF92FF9281
:104530000F931F93CF93DF93DC01C62F642F422F7D
:10454000752F532F0FB6F8940F92E114F10481F0F8
:1045500024E0C29FC00111248A0F9B1FFC0183A489
:1045600094A4A5A4B6A4F70180829182A282B3820A
:10457000FD01EC0FF11D87A592E097A7033011050F
:1045800009F4A5C008F076C00130110509F47DC01A
:104590000230110509F48CC0813009F05DC01A9613
:1045A000ED91FD911897CD91DD912D913D912C8349
:1045B0003D83DE91CE913E912E9114972A833B83C9
:1045C0009D012E5F3F4F818192818217930731F4C5
:1045D00016968D919D911897818392831A961D92BC
:1045E0001D928081815080831A968C91569790916C
:1045F0007701981710F48093770169E0689FC001F4
:10460000112483559E4FFC01C181D2811496CD9314
:10461000DD934C815D814D935D934C815D81FA0109
:10462000228333832C833D831E968C91689FF001F7
:104630001124E355FE4F1C97ED93FD9380818F5F0E
:104640008083E0916A01F0916B0196891A968C91B2
:10465000981710F40E94C80B81E00F900FBEDF91F5
:10466000CF911F910F91FF90EF90BF90AF909F90CF
:104670008F9008950430110509F08ECF823071F1CA
:1046800094E0C99FF001112426C024E0C29FF001EC
:104690001124EA0FFB1F03A514A525A536A5402B61
:1046A000512B622B732B43A754A765A776A774CF12
:1046B00094E0C99FF0011124EA0FFB1F43A554A504
:1046C00065A576A54F5F5F4F6F4F7F4FECCF24E01E
:1046D000C29FF0011124EA0FFB1FE5CF80E0BDCFA0
:1046E0008F929F92AF92BF92CF92DF92EF92FF9202
:1046F0000F931F93CF93DF93FC01C62F642F422F9C
:10470000752F532FE114F10489F024E0C29FC001FA
:1047100011248E0F9F1FDC019B968D909D90AD9074
:10472000BD90D7018D929D92AD92BD92DF01AC0FED
:10473000B11D9F968C9192E09C930330110509F472
:10474000B1C008F07CC00130110509F484C002300A
:10475000110509F496C0813009F063C080916C01A5
:104760008111A7C0A285B385C481D58126813781F7
:104770002C833D83C681D781248135812A833B8365
:104780009F012E5F3F4F11968D919D911397821738
:10479000930731F48681978111968D939D9313979A
:1047A000128613868C9181508C9386899091770123
:1047B000981710F48093770169E0689FC001112475
:1047C00083559E4FDC011196CD91DD91C483D58335
:1047D0004C815D81468357834C815D81DA0112965D
:1047E0002D933D932C833D838689689FD0011124AE
:1047F000A355BE4FA287B3878C918F5F8C93A091F6
:104800006A01B0916B01868956969C91981748F47D
:10481000C114D10419F081E0F601808381E0809316
:10482000730181E0DF91CF911F910F91FF90EF9085
:10483000DF90CF90BF90AF909F908F9008950430FD
:10484000110509F088CF823009F451C0D4E0CD9F22
:10485000D00111242BC0D4E0CD9FD0011124AE0F84
:10486000BF1F9B960D911D912D913D919F97402BC0
:10487000512B622B732B9F967E936E935E934E9378
:104880006ACF24E0C29FD0011124AE0FBF1F9B96B8
:104890004D915D916D917D919F974F5F5F4F6F4FF0
:1048A0007F4FE9CF94E0C99FD0011124AE0FBF1F05
:1048B000E2CFA0918F01B0919001A687B78714969F
:1048C0008D919D91808B918B3E912E91CF010C9675
:1048D000E9018A839B838D939D938EE891E0848B7D
:1048E000958B80918E018F5F80938E0188CF80E0C1
:1048F00099CFCF93DF93FC01DC01A60FB11D9F96EA
:104900002C9182E08C9384E0689FD0011124AE0F3B
:10491000BF1F9B966D917D918D919D916F5F7F4F94
:104920008F4F9F4F9E938E937E936E93213009F00D
:1049300065C080916C01811164C0A285B3858481BA
:10494000958126813781EC012C833D838681978177
:1049500024813581EC012A833B839F012E5F3F4FE9
:1049600011968D919D9113978217930731F486814B
:10497000978111968D939D931397128613868C9130
:1049800081508C93868990917701981710F48093C9
:104990007701A9E0A89FC001112483559E4FEC0127
:1049A00089819A8184839583EC016C817D81668302
:1049B00077836C817D81EB012A833B83EC012C831F
:1049C0003D838689A89FD0011124A355BE4FA2879D
:1049D000B3878C918F5F8C93A0916A01B0916B012A
:1049E000868956969C91981748F44115510519F0FF
:1049F00081E0FA01808381E080937301DF91CF91A0
:104A00000895A0918F01B0919001A687B787149661
:104A10008D919D91808B918B3E912E91CF010C9623
:104A2000E9018A839B838D939D938EE891E0848B2B
:104A3000958B80918E018F5F80938E01CDCFFC018D
:104A4000892B21F4E0916A01F0916B010FB6F89483
:104A50000F92E60FF11D87A5823029F417A681E099
:104A60000F900FBE089580E0FBCFCF92DF92EF92C0
:104A7000FF92FC01892B21F4E0916A01F0916B0116
:104A80000FB6F8940F9284E0689FB0011124E60FEE
:104A9000F71F63A574A585A596A5C3A4D4A4E5A412
:104AA000F6A42095309540955095C222D322E42259
:104AB000F522C3A6D4A6E5A6F6A60F900FBEFF90DA
:104AC000EF90DF90CF90089510926B0110926A01E1
:104AD0001092840110927A0110927901109278015B
:104AE0001092770110927601109275011092740164
:104AF0001092730110927201109271011092700164
:104B000010926F0110926C010895FC01628373830F
:104B1000808791874617570790F0421B530B848577
:104B2000958548175907C8F4BF016E5F7F4F809184
:104B3000D7019091D8010E945C0B80E00895421744
:104B4000530718F46217730740F4BF016E5F7F4F7D
:104B50008091D9019091DA01EECF81E008950F9311
:104B60001F93CF93DF9300D000D0CDB7DEB78C0179
:104B70006B837C8349835A83D8011C966D917D9108
:104B8000EB81FC816E0F7F1F9F0149815A81C80113
:104B90000E948525811109C00F900F900F900F90F2
:104BA000DF91CF911F910F910895D8011C968D919F
:104BB0009D91EB81FC81E80FF91FEB83FC8312963A
:104BC000ED91FD91C8010995D7CFCF93DF9300D028
:104BD00000D000D0CDB7DEB789839A836B837C8306
:104BE000E091D901F091DA010580F681E02D86810E
:104BF00097818D839E8302960E948C0BAD81BE812E
:104C000052968C91529782FF17C04B815C816981CB
:104C10007A81CD010E94AF25AD81BE815096ED9184
:104C2000FD915297CD010F900F900F900F900F9024
:104C30000F90DF91CF9109948E7FED81FE81828B61
:104C4000EBCFE091D901F091DA01808181110DC0A3
:104C50008091D7019091D8018093D9019093DA0186
:104C6000E093D701F093D80108950580F681E02DF7
:104C70006FEF7FEF808191810E94E525E2CF0FB633
:104C8000F8940F928091D5019091D601892BE9F487
:104C900084EE91E00E942B0B8BED91E00E942B0B98
:104CA00084EE91E08093D9019093DA018BED91E04D
:104CB0008093D7019093D80140E065E08AE00E949C
:104CC000130E8093D5019093D6010F900FBE0895D7
:104CD000EF92FF920F930E943F268091D501909111
:104CE000D601892B99F083EDE82E81E0F82E03E0C0
:104CF00020E030E04CE550E06CE571E087EB98E0B7
:104D00000E9470170F91FF90EF90089580E0FACF06
:104D10000F931F93CF93DF93CDB7DEB729970FB6CD
:104D2000F894DEBF0FBECDBF89839A836B837C83EB
:104D30004D832E833F8383E190E00E94020B88879E
:104D40009987009701F1FC01128A0E943F26898110
:104D50009A81E885F985808391838B819C81848702
:104D600095878E819F8186879787008B118BCF01D6
:104D700002960E94390B9D81911529F0E885F985ED
:104D800082898460828B8885998529960FB6F894EC
:104D9000DEBF0FBECDBFDF91CF911F910F91089560
:104DA0000F931F93CF93DF9300D000D00F92CDB716
:104DB000DEB72091D5013091D601232B59F480E044
:104DC0000F900F900F900F900F90DF91CF911F9148
:104DD0000F91089569834A835B838C839D8366303A
:104DE00074F70E94F71F282F8091D5019091D6016A
:104DF000223041F420E0A801BE016F5F7F4F0E9486
:104E00004B0EDECF20E040E050E0F6CFCF93DF93B3
:104E100000D000D00F92CDB7DEB7FC01DA01A901B6
:104E20008091D5019091D601009749F480E00F90D0
:104E30000F900F900F900F90DF91CF91089569839D
:104E4000AA83BB83EC83FD83663084F320E0BE013C
:104E50006F5F7F4F0E94180FEACF8091D30190912E
:104E6000D4010895FC01848595850895FC010FB651
:104E7000F8940F929289611529F09460928B0F90AB
:104E80000FBE08959B7FFACF0FB6F8940F92FC01E6
:104E9000828982FB882780F90F900FBE08950C94B9
:104EA0004427FC01828193810895FC0180819181D6
:104EB00008950FB6F8940F92FC01828981700F90CB
:104EC0000FBE08950FB6F8940F92FC018685978562
:104ED0000F900FBE08950FB6F8940F92FC016687ED
:104EE00077870F900FBE08951092D5011092D601CA
:104EF0001092D3011092D401089597FB072E16F457
:104F0000009407D077FD09D00E94972707FC05D0B1
:104F10003EF4909581959F4F0895709561957F4FD0
:104F20000895EE0FFF1F0590F491E02D0994AA1B40
:104F3000BB1B51E107C0AA1FBB1FA617B70710F084
:104F4000A61BB70B881F991F5A95A9F780959095B6
:104F5000BC01CD0108955058BB27AA270E94C32742
:104F60000C943D290E942F2938F00E94362920F008
:104F700039F49F3F19F426F40C942C290EF4E09593
:104F8000E7FB0C942629E92F0E944E2958F3BA1703
:104F9000620773078407950720F079F4A6F50C944F
:104FA00070290EF4E0950B2EBA2FA02D0B01B9013C
:104FB00090010C01CA01A0011124FF27591B99F08F
:104FC000593F50F4503E68F11A16F040A22F232F9B
:104FD000342F4427585FF3CF469537952795A795EB
:104FE000F0405395C9F77EF41F16BA0B620B730B92
:104FF000840BBAF09150A1F0FF0FBB1F661F771F03
:10500000881FC2F70EC0BA0F621F731F841F48F4B7
:10501000879577956795B795F7959E3F08F0B0CF40
:105020009395880F08F09927EE0F97958795089527
:105030000E94022908F481E008950E9431280C940E
:105040003D290E94362958F00E942F2940F029F46A
:105050005F3F29F00C94262951110C9471290C946E
:105060002C290E944E2968F39923B1F3552391F31B
:10507000951B550BBB27AA2762177307840738F0C7
:105080009F5F5F4F220F331F441FAA1FA9F335D024
:105090000E2E3AF0E0E832D091505040E695001CD8
:1050A000CAF72BD0FE2F29D0660F771F881FBB1F92
:1050B000261737074807AB07B0E809F0BB0B802D70
:1050C000BF01FF2793585F4F3AF09E3F510578F09C
:1050D0000C9426290C9471295F3FE4F3983ED4F395
:1050E000869577956795B795F7959F5FC9F7880F70
:1050F000911D9695879597F90895E1E0660F771FC2
:10510000881FBB1F621773078407BA0720F0621B52
:10511000730B840BBA0BEE1F88F7E09508950E947D
:1051200096286894B1110C94712908950E9456290B
:1051300088F09F5798F0B92F9927B751B0F0E1F058
:10514000660F771F881F991F1AF0BA95C9F714C008
:10515000B13091F00E947029B1E008950C9470294B
:10516000672F782F8827B85F39F0B93FCCF3869541
:1051700077956795B395D9F73EF49095809570959E
:1051800061957F4F8F4F9F4F0895E89409C097FB1B
:105190003EF490958095709561957F4F8F4F9F4F0E
:1051A0009923A9F0F92F96E9BB279395F695879552
:1051B00077956795B795F111F8CFFAF4BB0F11F415
:1051C00060FF1BC06F5F7F4F8F4F9F4F16C08823BC
:1051D00011F096E911C0772321F09EE8872F762FF2
:1051E00005C0662371F096E8862F70E060E02AF033
:1051F0009A95660F771F881FDAF7880F969587951F
:1052000097F90895990F0008550FAA0BE0E8FEEFF3
:1052100016161706E807F907C0F012161306E4077A
:10522000F50798F0621B730B840B950B39F40A2673
:1052300061F0232B242B252B21F408950A2609F451
:10524000A140A6958FEF811D811D089597F99F6755
:1052500080E870E060E008959FEF80EC08950024FE
:105260000A941616170618060906089500240A94CB
:1052700012161306140605060895092E0394000C51
:1052800011F4882352F0BB0F40F4BF2B11F460FFE0
:1052900004C06F5F7F4F8F4F9F4F089557FD905809
:1052A000440F551F59F05F3F71F04795880F97FBEA
:1052B000991F61F09F3F79F08795089512161306A4
:1052C0001406551FF2CF4695F1DF08C016161706D3
:1052D0001806991FF1CF8695710561050894089508
:1052E000E894BB2766277727CB0197F908950E949A
:1052F000022908F48FEF08950E948F290C943D290C
:105300000E942F2938F00E94362920F0952311F0B1
:105310000C9426290C942C2911240C9471290E9498
:105320004E2970F3959FC1F3950F50E0551F629F72
:10533000F001729FBB27F00DB11D639FAA27F00DEE
:10534000B11DAA1F649F6627B00DA11D661F829F15
:105350002227B00DA11D621F739FB00DA11D621FFA
:10536000839FA00D611D221F749F3327A00D611D17
:10537000231F849F600D211D822F762F6A2F1124F9
:105380009F5750409AF0F1F088234AF0EE0FFF1F2C
:10539000BB1F661F771F881F91505040A9F79E3F83
:1053A000510580F00C9426290C9471295F3FE4F399
:1053B000983ED4F3869577956795B795F795E795D9
:1053C0009F5FC1F7FE2B880F911D9695879597F9E2
:1053D00008959F930E94F3290F9007FCEE5F0C94B1
:1053E0001C2A0C942C290E945629D8F3E894E0E05A
:1053F000BB279F57F0F02AED3FE049EC06C0EE0FC7
:10540000BB0F661F771F881F28F0B23A6207730729
:10541000840728F0B25A620B730B840BE3959A95BC
:1054200072F7803830F49A95BB0F661F771F881F7C
:10543000D2F790480C94322AEF93E0FF07C0A2EA1B
:105440002AED3FE049EC5FEB0E94C3270E943D2913
:105450000F90039401FC9058E4E1F2E60C943E2A8C
:105460009F3F31F0915020F4879577956795B795D8
:10547000880F911D9695879597F908959F938F931F
:105480007F936F93FF93EF939B01AC010E947C2964
:10549000EF91FF910E94522A2F913F914F915F917E
:1054A0000C947C29DF93CF931F930F93FF92EF927D
:1054B000DF927B018C01689406C0DA2EEF010E9416
:1054C0008F29FE01E894A59125913591459155913B
:1054D000A6F3EF010E94C327FE019701A801DA9409
:1054E00069F7DF90EF90FF900F911F91CF91DF91BF
:1054F00008958F929F92AF92BF92EF920F931F9356
:10550000CF93322FC02F54E147FF54E0242F27FDC3
:105510002195E52E032F4C2F512F4B015C01C50126
:10552000B4010E94F32D8C2F912FCF911F910F91D9
:10553000EF90BF90AF909F908F9008950F931F931F
:10554000CF93DF939C01029710F422E030E0E091CA
:10555000ED01F091EE0180E090E0A0E0B0E0309746
:1055600091F4009709F448C0821B930B8430910595
:10557000D0F58A819B816115710581F1FB019383CF
:105580008283FE0111C04081518102811381421743
:105590005307D8F04217530799F4109761F0129609
:1055A0000C93129713961C933296CF01DF91CF91F3
:1055B0001F910F9108950093ED011093EE01F4CF28
:1055C000009751F04817590738F0AC01DB01CA01C8
:1055D000BD01DF01F801C3CFEF01F9CF9093EE01D8
:1055E0008093ED01CECFFE01E80FF91F2193319397
:1055F000029799838883D9CF4091EF015091F001B0
:105600004115510541F440911101509112015093FF
:10561000F0014093EF0180910F01909110010097EC
:1056200041F48DB79EB76091130170911401861BF0
:10563000970B4817590708F0B8CF841B950B8217B2
:10564000930708F4B2CFB9016E5F7F4F86179707B3
:1056500008F4ABCF640F751F7093F0016093EF01F6
:10566000FA0121933193A1CFCF93DF939C0100974F
:10567000E9F0FC01329713821282C091ED01D091C2
:10568000EE01DE0180E090E02097A1F4808191811D
:10569000280F391F8091EF019091F0018217930735
:1056A00009F068C0F093F001E093EF01DF91CF9132
:1056B0000895DA01AE17BF0708F042C012964D9167
:1056C0005C911397CD014115510599F7DC011396B3
:1056D000FC93EE9312974D915D919D01240F351F20
:1056E000E217F30781F4208131812E5F3F4F240FB1
:1056F000351FDC0111963C932E9322813381139642
:105700003C932E931297E0E0F0E08A819B81009712
:10571000B1F5DE018D919D918A0F9B1F2091EF01C4
:105720003091F0012817390709F6309759F5109292
:10573000EE011092ED01D093F001C093EF01B6CFCE
:10574000B383A28340815181240F351FA217B30771
:1057500071F44E5F5F4F2D913C911197240F351FCF
:105760003183208312962D913C91338322830097BD
:1057700009F0ACCFF093EE01E093ED0197CFFE017D
:10578000EC01C3CF13821282D6CFFB01DC0102C031
:1057900001900D9241505040D8F70895DC0101C0AE
:1057A0006D9341505040E0F70895AEE0B0E0EBED6E
:1057B000FBE20C94DF300D891E8986E08C831A830E
:1057C00009838F89988D813020E8920710F080E05E
:1057D00090E801979E838D83AE01455E5F4F698D92
:1057E0007A8DCE0101960E94072C4D815E8157FD76
:1057F0000AC02F813885421753070CF49A01020F13
:10580000131FF80110822E96E4E00C94FB30ABE0FD
:10581000B0E0EDE0FCE20C94D2306C017B018A0137
:10582000FC0117821682838181FFDAC19AE0492E3A
:10583000F6012381F70123FD859123FF81917F01EB
:10584000811509F41FC1853239F423FD959123FF99
:1058500091917F01953229F4B60190E00E94433086
:10586000E7CF30E0612C512C712CF0E27F1640F52F
:105870009B32D9F058F49032D1F09332F1F09E324D
:1058800099F576FCFFC0689476F806C09D3291F0D9
:105890009033C1F4689470F8F70123FD959123FFCC
:1058A00091917F019111E1CF29C0689471F86894BA
:1058B00072F8F2CF689473F8EFCF689474F8ECCF75
:1058C00077FC1CC080ED890F8A30C8F676FE05C0D3
:1058D000649C800D1124682EDFCF549C800D112410
:1058E000582E689475F8D8CF9C3619F4689477F8D8
:1058F000D3CF9C3409F44BC0983671F2892F8F7D39
:105900008554833008F445C0933609F466C0933754
:1059100009F469C0933509F475C0943619F09936C5
:1059200009F09FC0F80177FE95C061917191819156
:1059300091918F01272D2F76722E97FF09C0909598
:105940008095709561957F4F8F4F9F4F689477F842
:105950002AE030E0AE014F5F5F4F5A010E94733082
:105960008A19A82E76FEC5C0872D8E7FA61408F052
:10597000BFC074FE12C172FC06C1F72DFE7E7F2EE1
:10598000B62C872D8678811509F4C0C001C131E09D
:1059900083CF3115F9F0085F1F4F8FE38983882487
:1059A0008394912CAE014F5F5F4F5A01E89477F8D2
:1059B00073FC03C085149104B0F181149104D1F5F6
:1059C000511409F435CFB60180E290E00E944330D3
:1059D0005A94F6CF0C5F1F4FE0CFF8018081898386
:1059E0000E5F1F4FDCCFF801A190B1908F01662DA3
:1059F00070E076FC02C06FEF7FEFC5010E94383087
:105A00004C01D4CFF801A190B1908F01662D70E0C8
:105A100076FC02C06FEF7FEFC5010E942D304C0174
:105A2000689477F8C5CFB60180E290E00E944330D9
:105A30005A94C0CFF50177FC859177FE81915F0183
:105A4000B60190E00E94433051105A94F1E08F1A51
:105A50009108B3CF61917191072E000C880B990BBF
:105A600068CF372CE89434F82AE030E0953739F1E4
:105A7000572D597F352E903799F058F49835A9F065
:105A80009F36D9F0F601868197812B96E1E10C943F
:105A9000EE309837B9F774FC05C020E130E00FC054
:105AA000689434F8689432F8F8CF74FE03C0872DF8
:105AB0008660382E20E132E002C028E030E0F801B4
:105AC00037FE11C061917191819191918F01FE0119
:105AD00031965F01AF010E9473308A19A82E732C92
